:100000000C944D010C9475010C9475010C947501C0
:100010000C9475010C9475010C9475010C94750188
:100020000C9475010C9475010C948B110C94561260
:100030000C9475010C9475010C9475010C94750168
:100040000C9475010C9475010C9475010C94750158
:100050000C9475010C9475010C9475010C945E055B
:100060000C9475010C9462040C943C040C9475017E
:100070000C9475010C9475010C9475010C94750128
:100080000C9475010C9475010C9475010C94750118
:100090000C9475010C9475010C9475010C94750108
:1000A0000C9475010C9475010C94750196029902DB
:1000B00088028C029202BA02BA02BA029D02A1021E
:1000C000A502AB02AF02BA02B50207634236B79B84
:1000D000D8A71A39685618AEBAAB558C1D3CB7CCA8
:1000E0005763BD6DEDFD753EF6177231BF00000020
:1000F000803F08000000BE922449123EABAAAA2A03
:10010000BECDCCCC4C3E00000080BEABAAAAAA3E1D
:1001100000000000BF000000803F00000000000859
:100120004178D3BB4387D1133D190E3CC3BD4282F6
:10013000AD2B3E68EC8276BED98FE1A93E4C80EFB4
:10014000FFBE01C4FF7F3F0000000000070605045A
:100150000100080A0B0C0D09000000002400270014
:100160002A002D00300000000000250028002B0090
:100170002E003100000000002300260029002C0082
:100180002F00040404040403040502020202040311
:100190000202020206060606060604040202020421
:1001A0000404080201104080401020408040800874
:1001B00002040180402010020110801020404020E5
:1001C0000000000200090F0000030401000C000001
:1001D0000000000000000000000000000000000817
:1001E0000B000202020100090400000102020000EB
:1001F0000524001001052401010104240206052440
:100200000600010705810310004009040100020AED
:1002100000000007050202400000070583024000BD
:10022000000403090441726475696E6F204C4C43ED
:100230000041726475696E6F2059756E001201007D
:10024000020000004041234180000101020301122D
:10025000010002EF0201404123418000010102033D
:100260000105010902A1010901A100850105091982
:10027000012903150025019503750181029501757A
:1002800005810305010930093109381581257F757C
:100290000895038106C0C000312111241FBECFEF95
:1002A000DAE0DEBFCDBF16E0A0E0B1E0ECE6FDE4B1
:1002B00002C005900D92A83FB107D9F728E0A8EF3A
:1002C000B6E001C01D92A93EB207E1F711E0CDE40E
:1002D000D1E004C02197FE010E947E22CC34D107D8
:1002E000C9F70E94E5150C94B4260C940000FC019B
:1002F000918D828D981761F0828DDF01A80FB11D5D
:100300005D968C91928D9F5F9F73928F90E0089580
:100310008FEF9FEF0895FC01918D828D981731F03A
:10032000828DE80FF11D858D90E008958FEF9FEF8E
:100330000895FC01918D228D892F90E0805C9F4F64
:10034000821B91098F73992708958FE797E00E9488
:10035000990121E0892B09F420E0822F0895FC0106
:10036000848DDF01A80FB11DA35ABF4F2C91848D3E
:1003700090E001968F739927848FA689B7892C9373
:10038000A089B1898C9180648C93938D848D98130E
:1003900006C00288F389E02D80818F7D80830895D7
:1003A000EF92FF920F931F93CF93DF93EC0181E0C5
:1003B000888F9B8D8C8D981305C0E889F989808181
:1003C00085FD24C0F62E0B8D10E00F5F1F4F0F73BD
:1003D0001127E02E8C8DE8120CC00FB607FCFACF67
:1003E000E889F989808185FFF5CFCE010E94AF01B0
:1003F000F1CF8B8DFE01E80FF11DE35AFF4FF08224
:100400000B8FEA89FB898081806207C0EE89FF89B2
:100410006083E889F98980818064808381E090E04D
:10042000DF91CF911F910F91FF90EF900895CF939F
:10043000DF93EC01888D8823C9F0EA89FB898081EC
:1004400085FD05C0A889B9898C9186FD0FC00FB6BE
:1004500007FCF5CF808185FFF2CFA889B9898C91FF
:1004600085FFEDCFCE010E94AF01E7CFDF91CF91A5
:10047000089580E090E0892B29F00E94A501811168
:100480000C9400000895CF93DF931F92CDB7DEB791
:100490006983DC01ED91FC910280F381E02D41E064
:1004A00050E0BE016F5F7F4F09950F90DF91CF91B4
:1004B000089583E08093E9008091F200882319F089
:1004C0008AE38093E8000895FC018485958597FD73
:1004D0000BC09FB7F89482E08093E9008091F2000E
:1004E0009FBF90E0019608959FB7F89482E08093B3
:1004F000E9008091F2009FBF90E0089590E0FC0138
:100500003197EF30F105B0F5EA5AFF4F0C947E2297
:10051000809180008F7703C0809180008F7D8093D1
:100520008000089580918000877FF9CF84B58F7710
:1005300002C084B58F7D84BD0895809190008F772F
:1005400007C0809190008F7D03C080919000877FCD
:100550008093900008958091C0008F7703C08091B0
:10056000C0008F7D8093C00008958091C200877F76
:100570008093C20008951F93CF93DF93282F30E01C
:10058000F901E054FE4F8491F901EF55FE4FD491EB
:10059000F901EE57FE4FC491CC23C9F0162F8111FB
:1005A0000E947E02EC2FF0E0EE0FFF1FEA59FE4F93
:1005B000A591B4918FB7F894111105C09C91ED2FBE
:1005C000E095E92302C0EC91ED2BEC938FBFDF9116
:1005D000CF911F9108953FB7F8948091F9069091BB
:1005E000FA06A091FB06B091FC0626B5A89B05C0B3
:1005F0002F3F19F00196A11DB11D3FBFBA2FA92FA2
:10060000982F8827820F911DA11DB11DBC01CD011E
:1006100042E0660F771F881F991F4A95D1F708950A
:10062000DC01FB0112968C91129790E024813581B8
:1006300082179307D1F491818081813A31F481E06E
:10064000913091F0933089F411C0813271F49B3074
:1006500021F482811F968C9305C09A3031F48281F7
:1006600050968C9381E00895089580E00895DC0110
:10067000FB0188E4808389E4818384E482831D967E
:100680009C911D979F709F5B93831D968D919C916C
:100690001E9724E0969587952A95E1F78F708F5BDA
:1006A000848385E00895FC0182818F5BFB01808358
:1006B00081E00895CF93DF93EC0180912801882396
:1006C00031F083E00E94EC141816190634F081E032
:1006D00090E09B838A8380E090E0DF91CF91089542
:1006E0000F931F93CF93DF931F92CDB7DEB78C018B
:1006F000FC018485958597FF0EC0CE0101960E946E
:100700006111019719F4298130E002C02FEF3FEF0A
:10071000F80135872487F801848595850F90DF914E
:10072000CF911F910F910895CF93DF931F92CDB773
:10073000DEB7FC018485958597FD05C02FEF3FEF5F
:10074000358724870BC0CE0101960E946111019765
:1007500019F4898190E002C08FEF9FEF0F90DF9135
:10076000CF9108950E949926EF92FF920F931F93C5
:10077000CF93DF93FB012081213851F52381223271
:1007800039F5DC0112962C9130E0448155814217F5
:100790005307F1F4EC010B851C85E12CF12C0115BC
:1007A000110591F0F801448155816281738180E8DF
:1007B0000E94FD118F3FFFEF9F0769F0E80EF91EC1
:1007C000D8010D911C91EBCF81E08F87C70105C047
:1007D00080E090E002C08FEF9FEFDF91CF911F91FB
:1007E0000F91FF90EF900895CF93DF93CDB7DEB7D1
:1007F00069970FB6F894DEBF0FBECDBFFC01DB01D9
:100800008C918F5F8C93BE016F5F7F4F89E1DB011D
:100810001D928A95E9F729E0298384E08A8391E093
:100820009D8383E08E832A8721E22B879C879D8787
:100830009F8722E2288B27E02B8B25E02C8B8E8B49
:1008400020E430E0388F2F8B998F82818B839585C0
:100850008685998B8A8B838180688D8B49E150E0F6
:1008600080E00E94FD1169960FB6F894DEBF0FBEBE
:10087000CDBFDF91CF9108951F920F920FB60F92C7
:1008800011242F933F934F935F936F937F938F9395
:100890009F93AF93BF93EF93FF938FE797E00E94EF
:1008A000AF01FF91EF91BF91AF919F918F917F9198
:1008B0006F915F914F913F912F910F900FBE0F90CD
:1008C0001F9018951F920F920FB60F9211242F931D
:1008D0008F939F93EF93FF93E0918F07F091900791
:1008E0008081E0919507F091960782FD12C090817A
:1008F000809198078F5F8F7320919907821751F02D
:10090000E0919807F0E0E158F84F958F80939807B1
:1009100001C08081FF91EF919F918F912F910F9056
:100920000FBE0F901F901895CF93DF93282F30E0C4
:10093000F901E054FE4F8491F901EF55FE4FD49137
:10094000F901EE57FE4FC491CC2391F081110E9422
:100950007E02EC2FF0E0EE0FFF1FEC58FE4FA5914A
:10096000B491EC91ED2381E090E021F480E002C0AD
:1009700080E090E0DF91CF910895CF93DF9390E0F6
:10098000FC01EF55FE4F2491FC01EE57FE4F849180
:10099000882361F190E0880F991FFC01E85AFE4F0F
:1009A000C591D491FC01EA59FE4FA591B491611112
:1009B00009C09FB7F8948881209582238883EC91A1
:1009C0002E230BC0623061F49FB7F8943881822FD8
:1009D000809583238883EC912E2B2C939FBF06C098
:1009E0008FB7F894E8812E2B28838FBFDF91CF91AA
:1009F0000895823108F08251E82FF0E0E45BFE4F69
:100A0000E49180917B00E3FB222720F930E095E020
:100A1000220F331F9A95E1F78F7D282B20937B00BF
:100A2000E770E064E0937C0080917A0080648093BA
:100A30007A0080917A0086FDFCCF80917800209129
:100A4000790090E0922B08958F929F92AF92BF927F
:100A5000CF92DF92EF92FF926B017C010E94EB023A
:100A60004B015C01C114D104E104F104F1F00E94D6
:100A7000EB02DC01CB0188199909AA09BB09883E60
:100A80009340A105B10570F321E0C21AD108E10835
:100A9000F10888EE880E83E0981EA11CB11CC114D9
:100AA000D104E104F10419F7DDCFFF90EF90DF905E
:100AB000CF90BF90AF909F908F9008951F920F920C
:100AC0000FB60F9211242F933F938F939F93AF9361
:100AD000BF938091050790910607A0910707B091F9
:100AE00008073091F80623E0230F2D3720F40196F4
:100AF000A11DB11D05C026E8230F0296A11DB11D41
:100B00002093F8068093050790930607A0930707A4
:100B1000B09308078091F9069091FA06A091FB0620
:100B2000B091FC060196A11DB11D8093F90690932A
:100B3000FA06A093FB06B093FC06BF91AF919F917C
:100B40008F913F912F910F900FBE0F901F9018958E
:100B5000CF93DF93EC0181E08C838D839E01265F30
:100B60003F4F3F832E831986188625E731E039836E
:100B700028831C861B861E861D868F87888B81ECAA
:100B80008A870E94D115FC0121818C8190E0820F1F
:100B9000911D089774F5A281B381109719F4D3833E
:100BA000C2830CC018968D919C911997009711F0F3
:100BB000DC01F8CF1996DC93CE93189780818A8355
:100BC00081818B8390818D81890F808380E09C81DE
:100BD000891778F4AE81BF81A80FB11D9C91A181C6
:100BE000B0E0AA5EBE4F9C9391819F5F91838F5F1F
:100BF000EECFDF91CF910895AF92BF92CF92DF9267
:100C0000EF92FF920F931F93CF93DF931F92CDB775
:100C1000DEB75C017B018B016C0184E0C80ED11C46
:100C2000F80161918F01C50169830E949E26698147
:100C3000681719F0C5010E94A626FFEFAF1ABF0A78
:100C4000AC14BD0469F7C7010F90DF91CF911F91DC
:100C50000F91FF90EF90DF90CF90BF90AF900895ED
:100C6000AF92BF92CF92DF92EF92FF920F931F93BA
:100C7000CF93DF931F92CDB7DEB75C017B018B0171
:100C80006C0182E0C80ED11CF80161918F01C50191
:100C900069830E949E266981681719F0C5010E9428
:100CA000A626FFEFAF1ABF0AAC14BD0469F7C7014F
:100CB0000F90DF91CF911F910F91FF90EF90DF90F8
:100CC000CF90BF90AF900895CF92DF92EF92FF92B6
:100CD0000F931F93CF93DF93EB017B0124E0E20E90
:100CE000F11C8B016C01C61AD70AC601800F911F37
:100CF0000E949E26F80181938F01EE15FF05A9F74A
:100D0000CE01DF91CF911F910F91FF90EF90DF9077
:100D1000CF9008950F931F93CF93DF938C01EB0136
:100D20000E949E268883C80101960E949E26898380
:100D3000CE01DF91CF911F910F9108958F929F92D5
:100D4000AF92BF92CF92DF92EF92FF92CF93DF9359
:100D500082E10E94F90490932807809327076AE0B4
:100D600070E080E090E00E94240580912707909138
:100D700028070E945D1083E10E94F90490932607E2
:100D8000809325076AE070E080E090E00E942405EF
:100D900080912507909126070E945D1084E10E94B2
:100DA000F90490932407809323076AE070E080E0C1
:100DB00090E00E94240580912307909124070E94CF
:100DC0005D108CE10E94F904909322078093210723
:100DD0006AE070E080E090E00E94240580912107A5
:100DE000909122070E945D1080912707909128071B
:100DF0009093200780931F078091250790912607E5
:100E000090931A07809319078091230790912407E4
:100E100090931E0780931D078091210790912207D0
:100E200090931C0780931B072091030730910407C0
:100E30008091010790910207821793070CF4C90172
:100E40002091FF06309100076091FD067091FE062B
:100E5000621773070CF4B901681779072CF4BC0109
:100E6000990F880B990B04C0072E000C880B990B67
:100E70000E94A0236B017C016DE971E08CE198E098
:100E80000E94CF15C701B6010E949210C0911D07A4
:100E9000D0911E07BE010D2E000C880B990B0E94ED
:100EA000A0239B01AC01C701B6010E9484224B0123
:100EB0005C018091FF06909100078C1B9D0BBC018B
:100EC000990F880B990B0E94A0239B01AC01C501CF
:100ED000B4010E94F6226093100170931101809377
:100EE000120190931301C0911B07D0911C07BE0102
:100EF0000D2E000C880B990B0E94A0239B01AC01C6
:100F0000C701B6010E9484224B015C018091FD065D
:100F10009091FE068C1B9D0BBC01990F880B990BC1
:100F20000E94A0239B01AC01C501B4010E94F622DE
:100F300060930C0170930D0180930E0190930F014B
:100F4000C0911F07D0912007BE010D2E000C880B09
:100F5000990B0E94A0239B01AC01C701B6010E941E
:100F600084224B015C0180910307909104078C1B44
:100F70009D0BBC01990F880B990B0E94A0239B012C
:100F8000AC01C501B4010E94F62260930801709380
:100F9000090180930A0190930B01C0911907D09128
:100FA0001A07BE010D2E000C880B990B0E94A0237E
:100FB0009B01AC01C701B6010E9484226B017C0138
:100FC00080910107909102078C1B9D0BBC01990F2A
:100FD000880B990B0E94A0239B01AC01C701B601AD
:100FE0000E94F6226093040170930501809306012C
:100FF0009093070160E171E086E090E00E94FC05BB
:101000006AE070E080E090E00E9424056CE071E00E
:101010008AE090E00E94FC056AE070E080E090E0E9
:101020000E94240568E071E08EE090E00E94FC05DB
:101030006AE070E080E090E00E94240564E071E0E6
:1010400082E190E00E94FC056AE070E080E090E0C0
:101050000E94240569EA71E08CE198E0DF91CF916C
:10106000FF90EF90DF90CF90BF90AF909F908F90C8
:101070000C94BB15CF93DF9361E085E10E94BB0226
:1010800061E086E10E94BB026AE070E080E090E0EF
:101090000E94240560E085E10E94BB026AE070E0E6
:1010A00080E090E00E942405C3E0D0E061E086E1AA
:1010B0000E94BB0266E970E080E090E00E94240597
:1010C00060E086E10E94BB0266E970E080E090E0AB
:1010D0000E942405219751F760E086E10E94BB023F
:1010E0006AE070E080E090E00E9424056DEC71E021
:1010F0008FE797E00E94CF1562E370E080E090E018
:101100000E94240561ED71E08CE198E0DF91CF91C0
:101110000C94BB15CF93DF93CDB7DEB727970FB6EF
:10112000F894DEBF0FBECDBF8DEF898385E08A8343
:1011300082E08B831C821D821E821F8247E050E06A
:10114000BE016F5F7F4F8FE797E00E9493148FE798
:1011500097E00E9417026AE070E080E090E00E9451
:10116000240527960FB6F894DEBF0FBECDBFDF91E2
:10117000CF910895CF93DF93CDB7DEB727970FB602
:10118000F894DEBF0FBECDBF9DEF998395E09A83A3
:1011900092E09B838C836D834E832F8347E050E0E6
:1011A000BE016F5F7F4F8FE797E00E9493148FE738
:1011B00097E00E9417026AE070E080E090E00E94F1
:1011C000240527960FB6F894DEBF0FBECDBFDF9182
:1011D000CF91089562EF71E08CE198E00E94BB1519
:1011E0008091170790911807892B21F484E00E94C1
:1011F0000C1014C085E090E09093140780931307BF
:1012000020E030E040E050E060E070E00E94BA088A
:101210000E948A0810921407109213076DE770E07D
:1012200080E090E00C942405CF93DF936BEF71E0A6
:101230008CE198E00E94BB158091170790911807E8
:10124000892BE9F4C3E0D0E040E06EE780E00E9443
:10125000B90F2197C9F70E94F00F6DE770E080E0A9
:1012600090E00E942405C3E0D0E040E062E880E026
:101270000E94B90F2197C9F70E94FE0F36C0109245
:10128000140710921307C3E0D0E020E030E04EE7EF
:1012900050E060E070E080911307909114070E9485
:1012A000BA08219791F76DE770E080E090E00E9426
:1012B000240581E090E09093140780931307C3E026
:1012C000D0E020E030E042E85FEF60E070E0809145
:1012D0001307909114070E94BA08219791F70E9472
:1012E0008A0810921407109213076DE770E080E0EF
:1012F00090E0DF91CF910C9424058F929F92AF9252
:10130000BF92CF92DF92EF92FF920F931F93CF93F2
:10131000DF9300D000D0CDB7DEB7E0901907F09092
:101320001A07E816F9060CF074C0BC010091090711
:1013300010910A076E197F09072E000C880B990B74
:101340000E94A0234B015C0180910107909102074C
:101350008E199F09BC01990F880B990B0E94A0233D
:101360009B01AC01C501B4010E94F6222091040149
:101370003091050140910601509107010E945524CA
:1013800020E030E040EA5FE30E9455249B01AC017D
:10139000B801012E000C880B990B29833A834B83EB
:1013A0005C830E94A02329813A814B815C810E9449
:1013B000C2246B017C0120E030E0A9010E94F122EF
:1013C00018163CF0A701960160E070E080E09FE312
:1013D00007C0C701B601905820E030E040E05FE36D
:1013E0000E9484220E9468230E94A02320E030E013
:1013F00040E85FE30E9484220E946823882799279F
:10140000801B910B8617970734F4CB011816190629
:1014100014F480E090E00F900F900F900F90DF9108
:10142000CF911F910F91FF90EF90DF90CF90BF90E1
:10143000AF909F908F900895AF92BF92CF92DF921E
:10144000EF92FF920F931F93CF93DF9300D000D0C2
:10145000CDB7DEB700911F071091200708171907B5
:101460000CF06CC0BC01A0900907B0900A07601B8B
:10147000710B072E000C880B990B0E94A0236B01A7
:101480007C018091030790910407801B910BBC01A4
:10149000990F880B990B0E94A0239B01AC01C701F7
:1014A000B6010E94F6222091080130910901409175
:1014B0000A0150910B010E94552420E030E040EADF
:1014C0005FE30E9455249B01AC01B5010B2C000C7D
:1014D000880B990B29833A834B835C830E94A0235A
:1014E00029813A814B815C810E94C2246B017C017D
:1014F00020E030E0A9010E94502420E030E040E0EC
:101500005FE387FD05C0C701B6010E94852204C0C4
:10151000C701B6010E9484220E9468230E94A02372
:1015200020E030E040E85FE30E9484220E946823CC
:101530006A157B052CF45B0177FF02C0A12CB12C4E
:10154000C5010F900F900F900F90DF91CF911F91D9
:101550000F91FF90EF90DF90CF90BF90AF900895E4
:10156000AF92BF92CF92DF92EF92FF920F931F93B1
:10157000CF93DF9300D000D0CDB7DEB700911B072B
:1015800010911C07081719070CF06CC0BC01A09043
:101590000907B0900A07601B710B072E000C880B1F
:1015A000990B0E94A0236B017C018091FD06909114
:1015B000FE06801B910BBC01990F880B990B0E94B2
:1015C000A0239B01AC01C701B6010E94F622209125
:1015D0000C0130910D0140910E0150910F010E94BC
:1015E000552420E030E040EA5FE30E9455249B014F
:1015F000AC01B5010B2C000C880B990B29833A83A5
:101600004B835C830E94A02329813A814B815C81BA
:101610000E94C2246B017C0120E030E0A9010E94FD
:10162000502420E030E040E05FE387FD05C0C701C3
:10163000B6010E94852204C0C701B6010E9484221F
:101640000E9468230E94A02320E030E040E85FE38E
:101650000E9484220E9468236A157B052CF45B019A
:1016600077FF02C0A12CB12CC5010F900F900F90F5
:101670000F90DF91CF911F910F91FF90EF90DF902E
:10168000CF90BF90AF9008958F929F92AF92BF92EC
:10169000CF92DF92EF92FF920F931F93CF93DF933E
:1016A00000D000D0CDB7DEB7E0901D07F0901E0748
:1016B000E816F9060CF074C0BC01009109071091FE
:1016C0000A076E197F09072E000C880B990B0E94E0
:1016D000A0234B015C018091FF06909100078E19B9
:1016E0009F09BC01990F880B990B0E94A0239B01B5
:1016F000AC01C501B4010E94F62220911001309185
:10170000110140911201509113010E94552420E0D3
:1017100030E040EA5FE30E9455249B01AC01B80130
:10172000012E000C880B990B29833A834B835C8331
:101730000E94A02329813A814B815C810E94C224AE
:101740006B017C0120E030E0A9010E94F122181613
:101750003CF0A701960160E070E080E09FE307C0E5
:10176000C701B601905820E030E040E05FE30E94FE
:1017700084220E9468230E94A02320E030E040E8F9
:101780005FE30E9484220E94682388279927801B98
:10179000910B8617970734F4CB011816190614F429
:1017A00080E090E00F900F900F900F90DF91CF911D
:1017B0001F910F91FF90EF90DF90CF90BF90AF906F
:1017C0009F908F900895BF92CF92DF92EF92FF92F9
:1017D0000F931F93CF93DF9383E2B82E84E10E948F
:1017E000F9048C018CE10E94F904EC0187E10E946C
:1017F000F904BC01990F880B990B0E94A02320E0EB
:1018000030EC4FE754E40E94F62220E030E040EA5A
:1018100050E40E9455246B017C0180911707909140
:10182000180720911D0730911E07225E3F4F892B1C
:10183000C9F42017310724F4C8010E94440B0BC0DF
:1018400080911B0790911C074E968C179D07C4F53D
:10185000CE010E94B00A482F419560E080E00E94CE
:10186000B90F1EC02017310724F4C8010E94440B91
:101870000BC080911B0790911C074E968C179D07FB
:10188000FCF4CE010E94B00A22273327281B390B13
:1018900040E050E060E070E080E090E00E94BA0834
:1018A0008091150790911607B89EB001B99E700DF2
:1018B0001124072E000C880B990B0E9424058ECF53
:1018C00020910B0730910C0740910D0750910E07A6
:1018D000C701B6010E945024181674F020910F071A
:1018E000309110074091110750911207C701B601BE
:1018F0000E94F12287FF72CF6AEF70E080E090E0F3
:10190000DF91CF911F910F91FF90EF90DF90CF90DB
:10191000BF900C942405CF92DF92EF92FF920F9329
:101920001F93CF93DF93EC0197FF03C0D195C1952F
:10193000D1094230510521F143305105F1F14130D7
:10194000510509F066C000E010E06B01770FEE086A
:10195000FF080C171D0709F45CC061E084E00E94D9
:10196000BB02C701B6010E94240560E084E00E942A
:10197000BB02C701B6010E9424050F5F1F4FE9CFCC
:1019800000E010E06B01770FEE08FF080C171D0751
:1019900009F43FC061E085E00E94BB02C701B601C7
:1019A0000E94240560E085E00E94BB02C701B601E9
:1019B0000E9424050F5F1F4FE9CF00E010E06B018C
:1019C000770FEE08FF080C171D0719F161E084E09E
:1019D0000E94BB02C701B6010E94240560E084E0BA
:1019E0000E94BB02C701B6010E94240561E085E0A8
:1019F0000E94BB02C701B6010E94240560E085E099
:101A00000E94BB02C701B6010E9424050F5F1F4F51
:101A1000DACFDF91CF911F910F91FF90EF90DF9080
:101A2000CF9008958F929F92AF92BF92CF92DF9204
:101A3000EF92FF92CF93DF9362E072E08CE198E047
:101A40000E94BB1568E475E08CE198E00E94BB152C
:101A500043E050E06CE271E084E090E00E948B0C87
:101A600064E272E08CE198E00E94BB1541E050E036
:101A700064EF71E086E090E00E948B0C84E10E94AC
:101A8000F904909300078093FF0642E050E068EE6F
:101A900073E081E090E00E948B0C8091FF069091B2
:101AA00000070E945D1067EA72E08CE198E00E94F6
:101AB000BB1541E050E064EF71E086E090E00E94E9
:101AC0008B0C82E10E94F904909304078093030732
:101AD00042E050E068EE73E081E090E00E948B0C01
:101AE00080910307909104070E945D106FE273E0FC
:101AF0008CE198E00E94BB1541E050E064EF71E09A
:101B000086E090E00E948B0C8CE10E94F904909397
:101B1000FE068093FD0642E050E068EE73E081E04F
:101B200090E00E948B0C8091FD069091FE060E9431
:101B30005D1064EB73E08CE198E00E94BB1541E01E
:101B400050E064EF71E086E090E00E948B0C83E14E
:101B50000E94F904909302078093010742E050E04D
:101B600068EE73E081E090E00E948B0C80910107A9
:101B7000909102070E945D102091030730910407A5
:101B80008091010790910207821793070CF4C90115
:101B90002091FF06309100076091FD067091FE06CE
:101BA000621773070CF4B901681779072CF4BC01AC
:101BB000990F880B990B04C0072E000C880B990B0A
:101BC0000E94A0236B017C016DE971E08CE198E03B
:101BD0000E94CF15C701B6010E949210C0911D0747
:101BE000D0911E07BE010D2E000C880B990B0E9490
:101BF000A0239B01AC01C701B6010E9484224B01C6
:101C00005C018091FF06909100078C1B9D0BBC012D
:101C1000990F880B990B0E94A0239B01AC01C50171
:101C2000B4010E94F6226093100170931101809319
:101C3000120190931301C0911B07D0911C07BE01A4
:101C40000D2E000C880B990B0E94A0239B01AC0168
:101C5000C701B6010E9484224B015C018091FD0600
:101C60009091FE068C1B9D0BBC01990F880B990B64
:101C70000E94A0239B01AC01C501B4010E94F62281
:101C800060930C0170930D0180930E0190930F01EE
:101C9000C0911F07D0912007BE010D2E000C880BAC
:101CA000990B0E94A0239B01AC01C701B6010E94C1
:101CB00084224B015C0180910307909104078C1BE7
:101CC0009D0BBC01990F880B990B0E94A0239B01CF
:101CD000AC01C501B4010E94F62260930801709323
:101CE000090180930A0190930B01C0911907D091CB
:101CF0001A07BE010D2E000C880B990B0E94A02321
:101D00009B01AC01C701B6010E9484226B017C01DA
:101D100080910107909102078C1B9D0BBC01990FCC
:101D2000880B990B0E94A0239B01AC01C701B6014F
:101D30000E94F622609304017093050180930601CE
:101D40009093070160E171E086E090E00E94FC055D
:101D50006AE070E080E090E00E9424056CE071E0B1
:101D60008AE090E00E94FC056AE070E080E090E08C
:101D70000E94240568E071E08EE090E00E94FC057E
:101D80006AE070E080E090E00E94240564E071E089
:101D900082E190E00E94FC056AE070E080E090E063
:101DA0000E94240563E077E086E190E00E9430061F
:101DB0006AE070E080E090E00E94240561E077E056
:101DC00088E190E00E9430066AE070E080E090E0F8
:101DD0000E9424056FEF76E08AE190E00E943006D1
:101DE0006AE070E080E090E00E9424056DEF76E00C
:101DF0008CE190E00E9430066AE070E080E090E0C4
:101E00000E94240543E050E06AEF70E085E090E036
:101E10000E948B0C68E475E08CE198E00E94BB1591
:101E20006BE374E08CE198E0DF91CF91FF90EF904D
:101E3000DF90CF90BF90AF909F908F900C94BB1588
:101E400082E10E94F904909328078093270783E199
:101E50000E94F904909326078093250784E10E944D
:101E6000F90490932407809323078CE10E94F904DE
:101E7000909322078093210761E085E00E94BB02D6
:101E800080911F0790912007C296209127073091DB
:101E90002807821793071CF40E94EA0829C0809142
:101EA000190790911A07C2962091250730912607AD
:101EB000821793078CF380911D0790911E07C2969D
:101EC0002091230730912407821793071CF40E9466
:101ED00014090EC080911B0790911C07C296209197
:101EE000210730912207821793070CF0A9CFEFCF7B
:101EF00060E085E00C94BB02CF92DF92EF92FF92FC
:101F00000F931F93CF93DF931F92CDB7DEB7182F98
:101F1000062FE42E862F880F8E5F99830E94BE14B1
:101F200083E00E94BE14F12EC12E9981D92E8C2DF2
:101F30008F19801798F4F601E7FE02C0849101C062
:101F400080810E94BE14182F80E00E94BE1481235D
:101F5000FFEFCF1ADF0A8111EACF01C081E00F90B5
:101F6000DF91CF911F910F91FF90EF90DF90CF9075
:101F70000895CF93DF9300D000D01F92CDB7DEB786
:101F800090916C0899838A836B834C838091C708F6
:101F9000811107C086EB98E00E94A80581E080933C
:101FA000C70881E08D8341E050E0BE016B5F7F4F49
:101FB0008091B9080E94EC1497FD0AC08091B9087D
:101FC00044E050E0BE016F5F7F4F80640E94EC14DC
:101FD0000F900F900F900F900F90DF91CF91089579
:101FE00090916C08892F8160891739F080936C0873
:101FF00040E060E080E00C94B90F089590916C0887
:10200000892F8E7F891739F080936C0840E060E05B
:1020100080E00C94B90F089580936C0840E060E074
:1020200080E00E94B90F10926C0840E060E080E010
:102030000C94B90F8F929F92AF92BF920F931F9300
:10204000CF93DF93CDB7DEB7A1970FB6F894DEBF7D
:102050000FBECDBF19A2423008F44AE08E010F5DD9
:102060001F4F842E912CA12CB12CA50194010E940C
:102070005C22E62FB901CA0101501109EA3014F4BB
:10208000E05D01C0E95CD801EC93232B242B252BC8
:1020900061F7B8018CE198E00E94A615A1960FB6F1
:1020A000F894DEBF0FBECDBFDF91CF911F910F918E
:1020B000BF90AF909F908F900895CF92DF92EF9254
:1020C000FF92CF93DF936C01990FEE08FF08F7FEA4
:1020D00014C06DE28CE198E00E949F15EC01662728
:1020E0007727CB016C197D098E099F094AE00E9470
:1020F0001A107C01EC0EFD1E06C04AE0C701B601B5
:102100000E941A107C016BE774E08CE198E00E9459
:10211000A6158E0D9F1DDF91CF91FF90EF90DF9060
:10212000CF9008954F925F926F927F928F929F927D
:10213000AF92BF92CF92DF92EF92FF926B017C0140
:102140009B01AC010E945825882319F06BEE76E0C4
:102150001AC046015701E894B7F82FEF3FEF4FE759
:102160005FE7C501B4010E945825811112C02FEF0D
:102170003FEF4FE75FE7C501B4010E94F122181657
:1021800044F46FEE76E08CE198E00E94A6157C01A5
:1021900083C02FEF3FEF4FE75FE4C701B6010E9416
:1021A000502418161CF463EF76E0EDCF2FEF3FEFCD
:1021B0004FE75FECC701B6010E94F12287FDF3CF24
:1021C00020E030E0A901C701B6010E94F12287FF9B
:1021D0000BC06DE28CE198E00E949F155C01F7FA5C
:1021E000F094F7F8F09402C0A12CB12C2AE037ED5E
:1021F00043EA5BE3C701B6010E9485222B013C0143
:102200000E946F236B017C010E949E239B01AC0105
:10221000C301B2010E9484222B013C014AE0C701A4
:10222000B6010E941A107C01EA0CFB1C6EE28CE1E4
:1022300098E00E949F15E80EF91E20E030E040E291
:1022400051E4C301B2010E9455242B013C010E94BC
:102250006F234B01A12CB12C4AE0C501B4010E94AF
:102260001A10E80EF91EC501B4010E949E239B01BD
:10227000AC01C301B2010E94842220E030E040E2C0
:1022800051E40E9455240E946F2380E090E04AE0D0
:102290000E941A10E80EF91E6BE774E08CE198E0DA
:1022A0000E94A6158E0D9F1DFF90EF90DF90CF909E
:1022B000BF90AF909F908F907F906F905F904F9066
:1022C0000895FC0180917E07811103C08FEF9FEF7D
:1022D00008959FB7F89482E08093E9002091F2007E
:1022E00030E01216130614F421E030E02115310518
:1022F00059F0289884E680937D078091F1008083CF
:102300008091F200882319F09FBFC90108958BE6E0
:102310008093E800F9CF1F920F920FB60F9211240D
:102320008F939F938091E1009091E100937F909330
:10233000E10083FF0FC01092E90091E09093EB0061
:102340001092EC0092E39093ED0010927E0798E0DB
:102350009093F00082FF20C093E09093E900909169
:10236000F200992319F09AE39093E80090917C078A
:10237000992339F090917C07915090937C07992391
:1023800089F190917D07992339F090917D079150C3
:1023900090937D07992341F184FF10C08091E20062
:1023A0008E7E81608093E2008091E1008F7E809339
:1023B000E10080917B078E7E806111C080FF16C096
:1023C0008091E2008E7E80618093E2008091E10046
:1023D0008E7E8093E10080917B078E7E816080936A
:1023E0007B0704C05D9ACDCF289AD6CF9F918F915D
:1023F0000F900FBE0F901F901895DF92EF92FF92F3
:102400000F931F93CF93DF93D82E8A017B01E40EA5
:10241000F51EEB01CE15DF0571F0D7FE03C0FE01FE
:10242000849101C088810E94BE1421968111F2CF4F
:102430008FEF9FEF01C0C801DF91CF911F910F91E6
:10244000FF90EF90DF9008950F931F93CF93DF934A
:102450001F92CDB7DEB782E0898342E450E06FED92
:1024600071E080E80E94FD110E94D115DC011296F6
:102470000D911C9113970115110569F0D801ED918B
:10248000FC910280F381E02DBE016F5F7F4FC80198
:10249000099597FF07C089810F90DF91CF911F9118
:1024A0000F910895F80100851185E5CF1F920F92D5
:1024B0000FB60F921124CF92DF92EF92FF920F93FB
:1024C0001F932F933F934F935F936F937F938F93BC
:1024D0009F93AF93BF93EF93FF93CF93DF93CDB7CA
:1024E000DEB76C97DEBFCDBF1092E9008091E800A7
:1024F00083FFFAC168E0CE0145960E94921582EFF3
:102500008093E8008D8987FF05C09091E80090FFD7
:10251000FCCF03C09EEF9093E800982F907609F0CF
:10252000C6C09E892F89188D91110CC0803829F45E
:1025300080917A078093F10002C01092F10010920E
:10254000F10047C1422F50E0512B913051F48111DD
:1025500040C14130510509F03CC180917A078D7F1F
:102560000BC0933061F4811134C14130510509F041
:1025700030C180917A07826080937A072AC19530B2
:1025800041F48091E80080FFFCCF20682093E300B5
:1025900020C1963009F05FC0EB8CFC8C1092E900F2
:1025A0001092780710927707123091F51092760703
:1025B000109275070E94241299E0BE016F5F7F4F51
:1025C000DB01E92F1D92EA95E9F799831A8391E0DF
:1025D0009E8390EA98879AEF9987209177073091A8
:1025E0007807275F3F4F3C832B838D831092E90050
:1025F0001092780710927707F0927607E0927507AD
:1026000049E050E080E00E94FD110E942412E1C0E8
:10261000F0927607E09275070E94D115DC011296C0
:10262000ED90FC901397E114F10409F4C0C0D701B8
:10263000ED91FC910480F581E02DBE016B5E7F4F32
:10264000C7010995009719F00CF0C3C0C6C0F70187
:10265000E084F184E8CF973009F4BFC0983021F4CA
:1026600081E08093F100B5C0993009F0B2C0837069
:1026700009F0B3C0E7E1F1E081E021E036E39081C9
:10268000992361F08093E9002093EB00919190935E
:10269000EC003093ED008F5F873089F78EE78093F1
:1026A000EA001092EA008F8980937E0792C08B8D9A
:1026B0009C8D1092E9001092780710927707909302
:1026C000760780937507898D811156C08E899D8903
:1026D000913A59F4813209F080C047E050E061E25C
:1026E00071E080E00E94FD1174C0913209F075C064
:1026F000833289F4888D90E0982F88272F89822B48
:10270000A0E0B0E080931D0190931E01A0931F01F3
:10271000B09320015EC0803269F48091E80082FFAE
:10272000FCCF67E081E291E00E9492158BEF8093ED
:10273000E80006C0823209F04CC08F8980932801DE
:1027400080917907882319F0EEEFFAE002C0E0E00B
:10275000F8E08091210190912201A0912301B09194
:102760002401803B9440A105B10509F088C0809107
:10277000280180FFA0C083C00E94D115DC01129601
:102780000D911C9113970115110539F1D801ED91A7
:10279000FC910190F081E02DBE016B5E7F4FC8017E
:1027A0000995811116C0F80100851185ECCF113013
:1027B000C1F0133091F48F89882309F455C0823019
:1027C000E9F440E86BE081E392E00E947C0F88230B
:1027D00021F08EEF8093E80087C081E28093EB00C8
:1027E00083C08B8D9C8D089711F41093B508809150
:1027F000B508811136C06DE372E038C0813029F42C
:1028000040E86BE085E292E0E0CF833031F70E9450
:10281000D115DC011296ED90FC9013978E010F5F9D
:102820001F4F6801E114F10479F0D701ED91FC919B
:102830000680F781E02DB801C7010995080F111D29
:10284000F701E084F184EECFD8011C92F6010190EB
:102850000020E9F73197BF016C197D0940E0C601FE
:10286000B4CF6FE472E002C061E272E061157105FD
:1028700009F4B3CFFB01449150E080E833CF0FB6A9
:10288000F894A89580916000886180936000109210
:1028900060000FBEA895EE3F2AE0F20739F0809164
:1028A000FE0A9091FF0A9183808393CF1092FF0AD2
:1028B0001092FE0A8ECFEE3F8AE0F80731F0808159
:1028C00091819093FF0A8093FE0A87E797E79183AF
:1028D00080839BE088E10FB6F894A8958093600010
:1028E0000FBE9093600075CF6C960FB6F894DEBF64
:1028F0000FBECDBFDF91CF91FF91EF91BF91AF910F
:102900009F918F917F916F915F914F913F912F9107
:102910001F910F91FF90EF90DF90CF900F900FBE1F
:102920000F901F901895CF92DF92EF92FF920F9326
:102930001F93CF93DF936C017A018B01C0E0D0E04D
:10294000CE15DF0589F0D8016D918D01D601ED918D
:10295000FC910190F081E02DC6010995892B11F4BD
:102960007E0102C02196ECCFC701DF91CF911F916C
:102970000F91FF90EF90DF90CF90089540917707EF
:1029800050917807209175073091760742175307C9
:10299000B4F49091E8009570E1F39091E80092FD15
:1029A00019C08093F1008091770790917807019684
:1029B0008F739927892B19F48EEF8093E80080910B
:1029C000770790917807019690937807809377071F
:1029D00081E0089580E008958F929F92AF92BF9218
:1029E000CF92DF92EF92FF920F931F93CF93DF93DB
:1029F00000D01F92CDB7DEB7382F8B0180917E07B4
:102A0000811103C08FEF9FEF7DC080917B0780FF16
:102A100005C08091E00082608093E0004A018AEF67
:102A2000F82E832F8770E82E9FE3C92E832F8072A4
:102A3000B82E2AE3D22E832F8074A82E81149104FD
:102A400009F457C08FB7F894E092E9009091E8003C
:102A500095FF05C09091F2002C2D291B01C020E0AC
:102A60008FBF211110C0FA94FF2061F261E070E085
:102A700080E090E039834A835B830E94240539819A
:102A80004A815B81DBCF822F90E0881699060CF497
:102A9000282D6FB7F894E092E9008091E80085FF57
:102AA00026C0822F90E0881A990ABB2029F0215075
:102AB000A8F01092F100FBCFF80137FF07C02150BA
:102AC00058F074917093F1003196F9CF215020F0B5
:102AD00071917093F100FACF080F191F8091E800EF
:102AE00085FF0DC08114910411F4A11008C06FBFBF
:102AF000A5CF5D9884E680937C07CA0103C0D0927D
:102B0000E800F5CF0F900F900F90DF91CF911F91BC
:102B10000F91FF90EF90DF90CF90BF90AF909F907C
:102B20008F900895615030F02091F100FC012083D6
:102B30000196F8CF289884E680937D070895DC01FC
:102B4000ED91FC910190F081E02D099461157105E2
:102B500079F0FB0101900020E9F73197AF01461BA6
:102B6000570BDC01ED91FC910280F381E02D09947B
:102B700080E090E008950F931F93CF93DF93EC01D3
:102B80000E94A6158C016BE774E0CE010E94A61589
:102B9000800F911FDF91CF911F910F9108950C9499
:102BA000A6158091E10881110DC082E08093DD08B7
:102BB00084E08093DE081092E0081092DF0881E044
:102BC0008093E1088DED98E00895CF93DF93CDB722
:102BD000DEB767970FB6F894DEBF0FBECDBF78940F
:102BE00084B5826084BD84B5816084BD85B5826012
:102BF00085BD85B5816085BD80916E0081608093C3
:102C00006E0010928100809181008260809381002B
:102C1000809181008160809381008091800081603B
:102C200080938000809191008260809391008091D8
:102C300091008160809391008091900081608093E9
:102C400090008091C10084608093C1008091C10098
:102C500082608093C1008091C10081608093C10037
:102C60008091C30081608093C3008091C000826026
:102C70008093C0008091C20081608093C2008091E7
:102C80007A00846080937A0080917A0082608093D9
:102C90007A0080917A00816080937A0080917A0036
:102CA000806880937A0010927E0710927A071092C3
:102CB0007B078091D70081608093D70080EA809362
:102CC000D80089B5806189BD89B5826089BD09B4A4
:102CD00000FEFDCF61E070E080E090E00E942405FE
:102CE0008091D8008F7C80618093D8008091E00033
:102CF000807F8093E0008091E1008E7E8093E100F0
:102D00008DE08093E200559A209AEEEFFFE78591DF
:102D100094918B3F9C4D19F481E0809379078FEF5C
:102D20009FEF9093290880932808E0918F07F091F6
:102D3000900782E08083E0918B07F0918C071082EE
:102D4000E0918D07F0918E0780E1808310929707C4
:102D5000E0919307F091940786E08083E0919107DA
:102D6000F0919207808180618083E0919107F091DA
:102D70009207808188608083E0919107F0919207AB
:102D8000808180688083E0919107F0919207808133
:102D90008F7D808361E084E00E94BD0461E085E076
:102DA0000E94BD0461E085E10E94BD0461E086E10E
:102DB0000E94BD0460E087E10E94BD0460E082E102
:102DC0000E94BD0460E083E10E94BD0460E084E1F4
:102DD0000E94BD0460E08CE10E94BD0462E08CE0D2
:102DE0000E94BD0462E088E00E94BD0462E087E0CA
:102DF0000E94BD0462E082E00E94BD0462E083E0C4
:102E00000E94BD0462E089E00E94BD0462E08BE0A4
:102E10000E94BD0462E08DE00E94BD0482E10E9438
:102E2000F9045C0190932807809327076AE070E01B
:102E300080E090E00E94240583E10E94F9046C0187
:102E400090932607809325076AE070E080E090E089
:102E50000E94240584E10E94F9047C0190932407D8
:102E6000809323076AE070E080E090E00E942405F0
:102E70008CE10E94F9048C01909322078093210732
:102E80006AE070E080E090E00E942405B0922007A4
:102E9000A0921F07D0921A07C0921907F0921E073E
:102EA000E0921D0710931C0700931B0760E171E07F
:102EB00086E090E00E9464066AE070E080E090E0C6
:102EC0000E9424056CE071E08AE090E00E946406B4
:102ED0006AE070E080E090E00E94240568E071E024
:102EE0008EE090E00E9464066AE070E080E090E08E
:102EF0000E94240564E071E082E190E00E94640693
:102F00006AE070E080E090E00E94240563E077E0F2
:102F100086E190E00E948A066AE070E080E090E03E
:102F20000E94240561E077E088E190E00E948A0633
:102F30006AE070E080E090E00E9424056FEF76E0A8
:102F40008AE190E00E948A066AE070E080E090E00A
:102F50000E9424056DEF76E08CE190E00E948A06E5
:102F60006AE070E080E090E00E94240580E090E05C
:102F7000A0EFB1E48093000190930101A0930201BE
:102F8000B09303018093610790936207A093630756
:102F9000B093640780935D0790935E07A0935F07EB
:102FA000B09360078093590790935A07A0935B07EB
:102FB000B0935C078093550790935607A0935707EB
:102FC000B09358076AE070E080E090E00E9424052A
:102FD00087E10E94F904BC01990F880B990B0E94AC
:102FE000A02320E030E040E85AE30E94552420E08E
:102FF00030E040EA50E40E9455246B017C0120E05F
:1030000030E040E05FE30E94852260930B077093FD
:103010000C0780930D0790930E0720E030E040E00E
:103020005FE3C701B6010E94842260930F0770938B
:10303000100780931107909312076AE070E080E018
:1030400090E00E94240580E090E0A0E8BFE389833F
:103050009A83AB83BC83BE016B5F7F4F84E090E0BB
:103060000E948A066AE070E080E090E00E942405F9
:103070008D819E81019709F465C01A861986BE016B
:10308000675F7F4F80E090E00E9430066AE070E06A
:1030900080E090E00E94240584E090E098878F8390
:1030A000BE01695F7F4F82E090E00E9430066AE0D7
:1030B00070E080E090E00E942405BE016F5F7F4FCA
:1030C00086E090E00E94FC056AE070E080E090E01D
:1030D0000E942405BE016F5F7F4F8AE090E00E944E
:1030E000FC056AE070E080E090E00E942405BE01EB
:1030F0006F5F7F4F8EE090E00E94FC056AE070E019
:1031000080E090E00E942405BE016F5F7F4F82E166
:1031100090E00E94FC056AE070E080E090E00E9490
:10312000240581E090E09E838D83BE016B5F7F4F1D
:1031300084E090E00E9430066AE070E080E090E079
:103140000E9424056AE070E080E090E00E9424057F
:103150006AE070E080E090E00E9424058CE00E942C
:103160009404892B09F041C0109218071092170798
:103170006DE674E08CE198E00E94BB150E943A086D
:103180006AE58FE797E00E949F156BE774E08FE791
:1031900097E00E94A6156AE070E080E090E00E944F
:1031A00024058FE797E00E9499011816190654F438
:1031B0008FE797E00E947701682F8CE198E00E94EA
:1031C0009F15EFCF6EE774E08CE198E00E94BB158D
:1031D0006AE070E080E090E00E9424056AE070E020
:1031E00080E090E00E94240516C08CE00E949404C8
:1031F0008130910581F490931807809317076AE056
:1032000070E080E090E00E94240562EA74E08CE1C6
:1032100098E00E94BB156AE070E080E090E00E94B8
:10322000240500911707109118070115110531F4B5
:1032300069E170E080E090E00E9424056AE070E0BF
:1032400080E090E00E9424050130110509F0E0C003
:1032500083E090E09A838983BE016F5F7F4F80E0B7
:1032600090E00E948A066AE070E080E090E00E94B0
:10327000240589819A810E945D10E980FA80F0928C
:103280002A07E09229076AE070E080E090E00E945F
:1032900024056AE070E080E090E00E942405EF28B9
:1032A00009F0AAC00E943A0860EB74E08FE797E04B
:1032B0000E94BB156FE070E080E090E00E94240562
:1032C00067EB74E08FE797E00E94BB156FE070E05A
:1032D00080E090E00E9424056CEB74E08FE797E0BB
:1032E0000E94BB156FE070E080E090E00E94240532
:1032F00061EC74E08FE797E00E94BB156FE070E02F
:1033000080E090E00E94240568ED74E08FE797E08C
:103310000E94BB156FE070E080E090E00E94240501
:103320006DED74E08FE797E00E94BB156FE070E0F1
:1033300080E090E00E94240565EE74E08FE797E05E
:103340000E94BB156FE070E080E090E00E942405D1
:103350006AEE74E08FE797E00E94BB156FE070E0C3
:1033600080E090E00E9424056FEE74E08FE797E024
:103370000E94BB156FE070E080E090E00E942405A1
:1033800064EF74E08FE797E00E94BB156FE070E098
:1033900080E090E00E94240518870F83809114013B
:1033A000909115019E838D83BE01695F7F4F80E000
:1033B00090E00E9430066FE070E080E090E00E94B4
:1033C0002405BE016B5F7F4F82E090E00E943006D3
:1033D0006FE070E080E090E00E942405BE016F5F26
:1033E0007F4F80E090E00E948A066FE070E080E00E
:1033F00090E00E94240506C068EF74E08CE198E03C
:103400000E94BB156AE070E080E090E00E94240515
:103410006AE070E080E090E00E942405BE016F5FEA
:103420007F4F82E090E00E948A0665E070E080E0D5
:1034300090E00E94240589819A81909315018093E0
:1034400014016AE070E080E090E00E9424058FB7EC
:10345000F894C0900507D0900607E0900707F09019
:1034600008078FBF6FE275E08CE198E00E94CF15EE
:10347000C6010E945D1043E050E06AEF70E084E016
:1034800090E00E948B0C8091170790911807892B70
:10349000B1F440E060E081E00E94B90F69E170E0C2
:1034A00080E090E00E94240540E060E08FEF0E9401
:1034B000B90F69E170E080E090E00E94240568E4C3
:1034C00075E08CE198E00E94BB1564E475E08CE146
:1034D00098E00E94BB156AE475E08CE198E00E94D8
:1034E000BB1568E475E08CE198E00E94BB156BE7C2
:1034F00075E08CE198E00E94BB1568E475E08CE112
:1035000098E00E94BB156FE875E08CE198E00E949E
:10351000BB156CE975E08CE198E00E94BB1566EA8A
:1035200075E08CE198E00E94BB156BEB75E08CE1D7
:1035300098E00E94BB156FEC75E08CE198E00E946A
:10354000BB1561EF75E08CE198E00E94BB1560E16E
:1035500076E08CE198E00E94BB1564E475E08CE1B4
:1035600098E00E94BB1568E475E08CE198E00E9449
:10357000BB15E0911401F091150123E0EE0FFF1F40
:103580002A95E1F7E359F74F8081918190931607CF
:103590008093150782819381A481B5818093470729
:1035A00090934807A0934907B0934A078681978173
:1035B00090930A07809309076FE276E08CE198E028
:1035C0000E94CF1565E477E080E090E00E948A06D3
:1035D000DC018D919C910E945D1065E070E080E0BF
:1035E00090E00E9424056DE376E08CE198E00E9473
:1035F000CF1563E477E082E090E00E948A06FC0148
:10360000808191810E945D1065E070E080E090E033
:103610000E9424056DE476E08CE198E00E94CF15CD
:10362000E0914307F091440733E0EE0FFF1F3A9516
:10363000E1F7E359F74F808191810E945D1065E0C9
:1036400070E080E090E00E9424056CE576E08CE17B
:1036500098E00E94CF15E0914307F091440743E0C2
:10366000EE0FFF1F4A95E1F7E359F74F628173812F
:10367000848195810E94921065E070E080E090E086
:103680000E9424056CE676E08CE198E00E94CF155C
:10369000E0914307F091440753E0EE0FFF1F5A9566
:1036A000E1F7E359F74F868197810E945D1065E04D
:1036B00070E080E090E00E9424056FE776E08CE106
:1036C00098E00E94CF156FE377E086E090E00E94DB
:1036D0006406DC016D917D918D919C910E94921008
:1036E00065E070E080E090E00E94240560E976E00B
:1036F0008CE198E00E94CF156BE377E08AE090E0E0
:103700000E946406FC0160817181828193810E9424
:10371000921065E070E080E090E00E94240561EA8C
:1037200076E08CE198E00E94CF1567E377E08EE0C9
:1037300090E00E946406DC016D917D918D919C91D9
:103740000E94921065E070E080E090E00E94240505
:1037500062EB76E08CE198E00E94CF1563E377E0BE
:1037600082E190E00E946406FC01608171818281A7
:1037700093810E94921065E070E080E090E00E94EA
:10378000240563EC76E08CE198E00E94CF1561E3BC
:1037900077E086E190E00E948A06DC018D919C91A1
:1037A0000E945D1065E070E080E090E00E942405DA
:1037B0006CEC76E08CE198E00E94CF156FE277E048
:1037C00088E190E00E948A06FC01808191810E943C
:1037D0005D1065E070E080E090E00E94240565EDFA
:1037E00076E08CE198E00E94CF156DE277E08AE107
:1037F00090E00E948A06DC018D919C910E945D10F0
:1038000065E070E080E090E00E9424056EED76E0D7
:103810008CE198E00E94CF156BE277E08CE190E0BC
:103820000E948A06FC01808191810E945D1065E002
:1038300070E080E090E00E94240582E10E94F9049B
:10384000988B8F87909328078093270783E10E94A6
:10385000F9041C01909326078093250784E10E94B8
:10386000F9049A8B898B90932407809323078CE12A
:103870000E94F9049C8B8B8B9093220780932107E5
:1038800080911F07909120070F851889081B190B3D
:103890001016110644F4B801012E000C880B990B88
:1038A0000E94A02303C060E070E0CB019B01AC014B
:1038B0000E9455244B015C0180911D0790911E07C9
:1038C000E988FA88E81AF90A1E141F0444F4B701BB
:1038D0000F2C000C880B990B0E94A02303C060E002
:1038E00070E0CB019B01AC010E9455249B01AC010F
:1038F000C501B4010E9485220E9418252B013C01BC
:1039000060937107709372078093730790937407A5
:10391000101611063CF4B801110F880B990B0E9488
:10392000A02303C060E070E0CB019B01AC010E94CA
:1039300055244B015C0180911B0790911C072B893A
:103940003C89281B390B3E8B2D8B121613063CF439
:10395000B901330F880B990B0E94A02303C060E0CC
:1039600070E0CB019B01AC010E9455249B01AC018E
:10397000C501B4010E9485220E9418256B877C87AF
:103980008D879E8760936D0770936E0780936F0796
:10399000909370078091190790911A078101081B75
:1039A000190B1016110644F4B801012E000C880BF7
:1039B000990B0E94A02303C060E070E0CB019B0143
:1039C000AC010E9455244B015C011E141F043CF401
:1039D000B701FF0C880B990B0E94A02303C060E085
:1039E00070E0CB019B01AC010E9455249B01AC010E
:1039F000C501B4010E9485220E9418256B017C013B
:103A00006093690770936A0780936B0790936C07C4
:103A1000101611063CF4B801110F880B990B0E9487
:103A2000A02303C060E070E0CB019B01AC010E94C9
:103A300055244B015C018D899E89181619063CF4AA
:103A4000BC01990F880B990B0E94A02303C060E072
:103A500070E0CB019B01AC010E9455249B01AC019D
:103A6000C501B4010E9485220E9418254B015C010A
:103A70006093650770936607809367079093680764
:103A8000209161073091620740916307509164076C
:103A9000C301B2010E94502418166CF120915D07F9
:103AA00030915E0740915F07509160076B857C8580
:103AB0008D859E850E9450241816ECF020915907A0
:103AC00030915A0740915B0750915C07C501B401E2
:103AD0000E94502418167CF020915507309156070B
:103AE0004091570750915807C701B6010E945024D2
:103AF00018160CF047C100915307109154070F5F3F
:103B00001F4F109354070093530764E170E080E067
:103B100090E00E942405033011050CF433C180911C
:103B20001707909118072B853C854D855E85892B5D
:103B300009F08CC0C301B2010E94502487FD15C05A
:103B4000A7019601C301B2010E94502487FD0DC058
:103B5000A5019401C301B2010E94502487FD05C054
:103B600089899A890E94440B22C0A30192016B8526
:103B70007C858D859E850E94502418161CF5A50114
:103B800094016B857C858D859E850E945024181636
:103B9000CCF4A70196016B857C858D859E850E945E
:103BA000502418167CF48B899C890E94B00A682FD7
:103BB0008F8598896F8B0E941C0A40E06F890E9454
:103BC000B90FD2C0A3019201C501B4010E945024D3
:103BD00087FD17C02B853C854D855E85C501B401E9
:103BE0000E94502487FD0DC0A7019601C501B401B4
:103BF0000E94502487FD05C08B899C890E94B00AD1
:103C00001FC0A3019201C701B6010E9450241816DB
:103C10000CF0B8C02B853C854D855E85C701B6018B
:103C20000E94502487FDAEC0A5019401C701B601D2
:103C30000E94502487FDA6C089899A890E94440B5E
:103C4000682FC1016F8B0E947D09B7CFC301B201FC
:103C50000E94502487FD15C0A7019601C301B2013F
:103C60000E94502487FD0DC0A5019401C301B2013B
:103C70000E94502487FD05C089899A890E94440BBF
:103C800022C0A30192016B857C858D859E850E9453
:103C900050241816F4F4A50194016B857C858D855C
:103CA0009E850E9450241816A4F4A70196016B85E6
:103CB0007C858D859E850E945024181654F48B892E
:103CC0009C890E94B00A8C018F8598890E941C0AE9
:103CD00041C0A3019201C501B4010E94502487FD97
:103CE00017C02B853C854D855E85C501B4010E94BA
:103CF000502487FD0DC0A7019601C501B4010E94A3
:103D0000502487FD05C08B899C890E94B00A1EC083
:103D1000A3019201C701B6010E945024181694F520
:103D20002B853C854D855E85C701B6010E945024D8
:103D300087FD28C0A5019401C701B6010E94502447
:103D400087FD20C089899A890E94440B8C01C1019A
:103D50000E947D09BC0120E030E0A801809113079A
:103D6000909114070E94BA08609115077091160788
:103D7000072E000C880B990B0E9424051092540703
:103D80001092530788E00E949404892B09F064C0C4
:103D90006AEF70E080E090E00E94240587E00E94D6
:103DA0009404892B19F40E94120D56C080911401BD
:103DB000909115010196909315018093140189301B
:103DC000910579F443E050E062E370E086E090E032
:103DD0000E948B0CA8E0B0E0B0931501A0931401F1
:103DE0003BC041E050E064E670E00E948B0CE09143
:103DF0001401F091150193E0EE0FFF1F9A95E1F782
:103E0000E359F74F808191819093160780931507AE
:103E100082819381A481B58180934707909348075D
:103E2000A0934907B0934A078681978190930A0728
:103E30008093090764E171E082E090E00E9430061F
:103E400069E170E080E090E00E94240567EE76E092
:103E50008CE198E00E94BB1587E00E949404892BB6
:103E600009F06AC06AEF70E080E090E00E942405EB
:103E700088E00E949404892B19F40E94120D5CC002
:103E800080911401909115010197909315018093F1
:103E900014018F3FBFEF9B0769F443E050E062E3FA
:103EA00070E086E090E00E948B0C10921501109259
:103EB000140142C041E050E0009729F46EE571E042
:103EC00081E090E002C064E670E00E948B0CE0911B
:103ED0001401F091150183E0EE0FFF1F8A95E1F7C1
:103EE000E359F74F808191819093160780931507CE
:103EF00082819381A481B58180934707909348077D
:103F0000A0934907B0934A078681978190930A0747
:103F10008093090764E171E082E090E00E9430063E
:103F200069E170E080E090E00E94240569EE76E0AF
:103F30008CE198E00E94BB1587E10E94F904BC0166
:103F4000990F880B990B0E94A02320E030EC4FE7DB
:103F500054E40E94F62220E030E040EA50E40E945F
:103F6000552460934F0770935007809351079093A7
:103F70005207C0900F07D0901007E0901107F09003
:103F80001207A70196010E94F12287FFB3C0A70183
:103F9000960160914F077091500780915107909161
:103FA00052070E94F12287FF2DC087E10E94F90489
:103FB000BC01990F880B990B0E94A02320E030ECE4
:103FC0004FE754E40E94F62220E030E040EA50E45B
:103FD0000E94552460934F077093500780935107B8
:103FE0009093520780914D0790914E0701969093C0
:103FF0004E0780934D0765E070E080E090E00E94FE
:104000002405C5CF60914D0770914E0780E090E088
:104010004AE00E941A106BE774E08CE198E00E947D
:10402000A615209117073091180780914D079091A0
:104030004E07232B29F58639910540F480916C08B1
:1040400080FD03C181E00E940C1004C19C0127592E
:1040500031092735324028F480916C0880FFF8C080
:10406000F4C08F3E924008F441C043E050E06EE55A
:1040700071E084E090E00E948B0C0E949E0636C0A6
:1040800086399105A8F481E090E09093140780931D
:10409000130720E030E040E050E060E070E00E9474
:1040A000BA080E948A081092140710921307D2C00F
:1040B0009C012759310927353240A0F4809113071C
:1040C00090911407009739F481E090E090931407E1
:1040D000809313070BC0019749F4109214071092B4
:1040E000130704C08F3E924008F0BFCF10924E07D6
:1040F00010924D07C0900B07D0900C07E0900D0771
:10410000F0900E07A701960160914F07709150073C
:1041100080915107909152070E94502418160CF07C
:1041200091C0A701960160914F077091500780914F
:104130005107909152070E94502418166CF587E1A0
:104140000E94F904BC01990F880B990B0E94A023CF
:1041500020E030EC4FE754E40E94F62220E030E00B
:1041600040EA50E40E94552460934F077093500733
:10417000809351079093520780914B0790914C0781
:10418000019690934C0780934B0765E070E080E0C8
:1041900090E00E942405C5CF60914B0770914C07B9
:1041A00080E090E04AE00E941A106BE774E08CE136
:1041B00098E00E94A615209117073091180780916A
:1041C0004B0790914C07232B09F58639910520F474
:1041D00082E00E940C1007C08759910987359240F0
:1041E00090F40E94E30B65E070E080E090E00E94B4
:1041F000240524C09C01275931092735324088F312
:104200008F3E9240D8F00E94200FEDCF8639910565
:1042100088F782E090E0909314078093130720E0E2
:1042200030E040E050E060E070E00E94BA08109298
:104230001407109213070E948A08D5CF10924C07DA
:1042400010924B070E943902F8CA0E94FE0F4ECF0F
:104250000E94F00F65E070E080E090E00E9424058D
:1042600045CF109282071092810788EE93E0A0E07C
:10427000B0E08093830790938407A0938507B09361
:10428000860721E831E03093800720937F072DECEB
:1042900030E030938C0720938B072CEC30E0309388
:1042A0008E0720938D0728EC30E030939007209301
:1042B0008F0729EC30E030939207209391072AEC86
:1042C00030E030939407209393072EEC30E0309346
:1042D00096072093950710929807109299071092CD
:1042E0009A0710929B0710921F0810921E08809345
:1042F000200890932108A0932208B093230881E915
:1043000091E090931D0880931C088FEF9FEF90938E
:1043100029088093280810926C088091D508811193
:1043200013C01092D0081092CF0881E692E09093CB
:10433000D2088093D10886E390E09093D4088093CC
:10434000D30881E08093D5088091C708811107C008
:1043500086EB98E00E94A80581E08093C708E09171
:10436000C108F091C208309739F48FEC98E090932F
:10437000C2088093C1080AC080819181009711F022
:10438000FC01FACF8FEC98E0918380832091D308D1
:104390003091D4088091C3089091C408820F931F74
:1043A0009093C4088093C3088AE090E090937001D2
:1043B00080936F018FE090E0909368018093670194
:1043C00084E190E09093600180935F0189E190E047
:1043D00090935801809357018EE190E090935001A3
:1043E00080934F0183E290E09093480180934701CE
:1043F00088E290E09093400180933F018DE290E04D
:10440000909338018093370182E390E090933001DC
:1044100080932F0188E0E9E6F1E0ADE6B8E0019095
:104420000D928A95E1F788E0E1E6F1E0A5E7B8E0D2
:1044300001900D928A95E1F788E0E9E5F1E0ADE7BA
:10444000B8E001900D928A95E1F788E0E1E5F1E0AE
:10445000A5E8B8E001900D928A95E1F788E0E9E4DB
:10446000F1E0ADE8B8E001900D928A95E1F788E0BF
:10447000E1E4F1E0A5E9B8E001900D928A95E1F759
:1044800088E0E9E3F1E0ADE9B8E001900D928A95AA
:10449000E1F788E0E1E3F1E0A5EAB8E001900D92F0
:1044A0008A95E1F788E0E9E2F1E0ADEAB8E0019051
:1044B0000D928A95E1F70895A1E21A2EAA1BBB1B63
:1044C000FD010DC0AA1FBB1FEE1FFF1FA217B307E0
:1044D000E407F50720F0A21BB30BE40BF50B661FF6
:1044E000771F881F991F1A9469F7609570958095BA
:1044F00090959B01AC01BD01CF010895EE0FFF1F08
:104500000590F491E02D09945058BB27AA270E94EA
:104510009C220C9416240E94082438F00E940F2438
:1045200020F039F49F3F19F426F40C9405240EF47E
:10453000E095E7FB0C94FF23E92F0E94272458F312
:10454000BA17620773078407950720F079F4A6F578
:104550000C9449240EF4E0950B2EBA2FA02D0B01DC
:10456000B90190010C01CA01A0011124FF27591BB8
:1045700099F0593F50F4503E68F11A16F040A22FBE
:10458000232F342F4427585FF3CF4695379527952F
:10459000A795F0405395C9F77EF41F16BA0B620B2E
:1045A000730B840BBAF09150A1F0FF0FBB1F661F75
:1045B000771F881FC2F70EC0BA0F621F731F841FB8
:1045C00048F4879577956795B795F7959E3F08F0DE
:1045D000B0CF9395880F08F09927EE0F97958795A0
:1045E00008950E94DB2308F481E008950E940A23C5
:1045F0000C9416240E940F2458F00E94082440F0C6
:1046000029F45F3F29F00C94FF2351110C944A24A4
:104610000C9405240E94272468F39923B1F35523B1
:1046200091F3951B550BBB27AA27621773078407C5
:1046300038F09F5F5F4F220F331F441FAA1FA9F35B
:1046400035D00E2E3AF0E0E832D091505040E69549
:10465000001CCAF72BD0FE2F29D0660F771F881FAA
:10466000BB1F261737074807AB07B0E809F0BB0B9D
:10467000802DBF01FF2793585F4F3AF09E3F5105B1
:1046800078F00C94FF230C944A245F3FE4F3983EA7
:10469000D4F3869577956795B795F7959F5FC9F79A
:1046A000880F911D9695879597F90895E1E0660F1B
:1046B000771F881FBB1F621773078407BA0720F094
:1046C000621B730B840BBA0BEE1F88F7E0950895FD
:1046D0000E946F236894B1110C944A2408950E949B
:1046E0002F2488F09F5798F0B92F9927B751B0F031
:1046F000E1F0660F771F881F991F1AF0BA95C9F766
:1047000014C0B13091F00E944924B1E008950C9496
:104710004924672F782F8827B85F39F0B93FCCF349
:10472000869577956795B395D9F73EF490958095E2
:10473000709561957F4F8F4F9F4F0895E89409C002
:1047400097FB3EF490958095709561957F4F8F4FC4
:104750009F4F9923A9F0F92F96E9BB279395F695DA
:10476000879577956795B795F111F8CFFAF4BB0F58
:1047700011F460FF1BC06F5F7F4F8F4F9F4F16C0BC
:10478000882311F096E911C0772321F09EE8872F46
:10479000762F05C0662371F096E8862F70E060E002
:1047A0002AF09A95660F771F881FDAF7880F96957B
:1047B000879597F90895990F0008550FAA0BE0E81F
:1047C000FEEF16161706E807F907C0F012161306D3
:1047D000E407F50798F0621B730B840B950B39F413
:1047E0000A2661F0232B242B252B21F408950A2679
:1047F00009F4A140A6958FEF811D811D089597F9B9
:104800009F6780E870E060E008959FEF80EC089576
:1048100000240A941616170618060906089500249F
:104820000A9412161306140605060895092E039419
:10483000000C11F4882352F0BB0F40F4BF2B11F48D
:1048400060FF04C06F5F7F4F8F4F9F4F089557FDEC
:104850009058440F551F59F05F3F71F04795880FEE
:1048600097FB991F61F09F3F79F087950895121685
:1048700013061406551FF2CF4695F1DF08C0161631
:1048800017061806991FF1CF8695710561050894E2
:104890000895E894BB2766277727CB0197F90895F9
:1048A0000E94DB2308F48FEF08950E9468240C9483
:1048B00016240E94082438F00E940F2420F095232B
:1048C00011F00C94FF230C94052411240C944A2419
:1048D0000E94272470F3959FC1F3950F50E0551F58
:1048E000629FF001729FBB27F00DB11D639FAA2745
:1048F000F00DB11DAA1F649F6627B00DA11D661F94
:10490000829F2227B00DA11D621F739FB00DA11DB4
:10491000621F839FA00D611D221F749F3327A00D6E
:10492000611D231F849F600D211D822F762F6A2F0A
:1049300011249F5750409AF0F1F088234AF0EE0F6F
:10494000FF1FBB1F661F771F881F91505040A9F79C
:104950009E3F510580F00C94FF230C944A245F3F46
:10496000E4F3983ED4F3869577956795B795F795D8
:10497000E7959F5FC1F7FE2B880F911D9695879550
:1049800097F90895FA01EE0FFF1F309621053105C2
:10499000A1F16115710561F48038BFE39B0749F10E
:1049A00068949038810561F08038BFEF9B0741F033
:1049B00099234AF5FF3FE1053105210519F1E894F6
:1049C0000894E795D901AA2329F4AB2FBE2FF85FED
:1049D000D0F310C0FF5F70F4A695E0F7F73950F000
:1049E00019F0FF3A38F49F779F930DD00F9007FC92
:1049F0009058089546F00C94052460E070E080E83B
:104A00009FE308954FE79F775F934F933F932F93D3
:104A10000E941D262F913F914F915F910E94552436
:104A20000C94652519F416F40C9405240C94972520
:104A30000E942F24B8F39923C9F3B6F39F57550B5F
:104A400087FF0E94A5250024A0E640EA9001805837
:104A50005695979528F4805C660F771F881F20F085
:104A600026173707480730F4621B730B840B202985
:104A700031294A2BA69517940794202531254A27DA
:104A800058F7660F771F881F20F02617370748074B
:104A900030F4620B730B840B200D311D411DA0956A
:104AA00081F7B901842F9158880F969587950895BD
:104AB0000E94DB23880B990B089529F416F00C94BF
:104AC000FF230C9449240C9405240E942F24A8F35E
:104AD0009638A0F707F80F92E8942BE33AEA48EBF0
:104AE0005FE70E946B240F920F920F924DB75EB753
:104AF0000F920E946526EAECF0E00E94AC254F91EF
:104B00005F91EF91FF91E595EE1FFF1F49F0FE5772
:104B1000E0684427EE0F441FFA95E1F74195550BE5
:104B20000E94DF250F9007FE0C94D32508959F3F28
:104B300031F0915020F4879577956795B795880F58
:104B4000911D9695879597F9089591505040660F5D
:104B5000771F881FD2F70895DF93CF931F930F938A
:104B6000FF92EF92DF927B018C01689406C0DA2EEF
:104B7000EF010E946824FE01E894A59125913591EA
:104B800045915591A6F3EF010E949C22FE019701E9
:104B9000A801DA9469F7DF90EF90FF900F911F91D1
:104BA000CF91DF9108959B01AC0160E070E080E857
:104BB0009FE30C94F6220C94FF230C9497250E94FB
:104BC0002F24D8F39923C9F3940F511DA3F39150C7
:104BD000504094F059F0882332F0660F771F881FF9
:104BE00091505040C1F79E3F51052CF7880F911D01
:104BF0009695879597F908955F3FACF0983E9CF0A5
:104C0000BB27869577956795B79508F4B16093951E
:104C1000C1F7BB0F58F711F460FFE8CF6F5F7F4F0C
:104C20008F4F9F4FE3CF0C944A2416F00C94972596
:104C30000C94052468940C94FF230E942F24A8F35D
:104C40009923C1F3AEF3DF93CF931F930F93FF929A
:104C5000C92FDD2788232AF02197660F771F881F29
:104C6000DAF720E030E040E85FEB9FE3883920F09E
:104C7000803E38F021968F770E948522E2EFF0E0A7
:104C800004C00E948522EFE1F1E00E94AC258B0177
:104C9000BE01EC01FB2E6F5771097595771F880BCC
:104CA000990B0E94A02328E132E741E35FE30E94D1
:104CB0006824AF2D9801AE01FF900F911F91CF9105
:104CC000DF910E949C220C941624FA01DC01AA0FA9
:104CD000BB1F9B01AC01BF5728F422273327442771
:104CE000507820C0B75190F4AB2F002446953795EB
:104CF0002795011CA395D2F3002071F0220F331FDA
:104D0000441FB395DAF30ED00C9484226130710500
:104D1000A0E88A07B94630F49B01AC0166277727E3
:104D200088279078309621F0208331834283538303
:104D3000089581E090E0F8940C94B426F999FECFA0
:104D400092BD81BDF89A992780B50895262FF999CB
:104D5000FECF1FBA92BD81BD20BD0FB6F894FA9A5E
:0C4D6000F99A0FBE01960895F894FFCF59
:104D6C000000F0410000803F0000803F0000803FC9
:104D7C000000803F040000C18081000000FFFFFFA5
:104D8C00FF00E10000000000000500CDCC8CBF004E
:104D9C00000500CDCC8CBF00000500CDCC8CBF0035
:104DAC00000500CDCC8CBF00000500CDCC8CBF0025
:104DBC00000500CDCC8CBF00000500CDCC8CBF0015
:104DCC00000500CDCC8CBF00000500CDCC8CBF0005
:104DDC0000000000001003F403B4033703000000CC
:104DEC0000D0019314990177018B01170200000088
:104DFC000043025A0364029403700359026D6178F4
:104E0C005F66696E616C3A2000486F6D6520706F4B
:104E1C00736974696F6E2063616C69627261746925
:104E2C006F6E20636F6D706C6574652E0024242486
:104E3C0000426C7565746F6F746820436F6D6D61A3
:104E4C006E64204D6F64652041637469766174658E
:104E5C006400746F6F20736C6F7700676F74636896
:104E6C0061005072657061726520666F72206A6FA6
:104E7C0079737469636B2063616C696272617469C4
:104E8C006F6E21004D6F7665206D6F75746870695B
:104E9C0065636520746F207468652066757274682C
:104EAC0065737420766572746963616C207570200B
:104EBC00706F736974696F6E20616E6420686F6CBB
:104ECC006420697420746865726520756E74696CF1
:104EDC0020746865204C4544207475726E732053A1
:104EEC004F4C4944205245442C207468656E207206
:104EFC00656C6561736520746865206D6F75746889
:104F0C0070696563652E004D6F7665206D6F7574E5
:104F1C0068706965636520746F20746865206675B8
:104F2C0072746865737420686F72697A6F6E7461DD
:104F3C006C20726967687420706F736974696F6E26
:104F4C0020616E6420686F6C6420697420746865DD
:104F5C00726520756E74696C20746865204C4544CC
:104F6C00207475726E7320534F4C49442052454443
:104F7C002C207468656E2072656C65617365207495
:104F8C006865206D6F75746870696563652E004D7A
:104F9C006F7665206D6F75746870696563652074D4
:104FAC006F207468652066757274686573742076FA
:104FBC006572746963616C20646F776E20706F73B7
:104FCC006974696F6E20616E6420686F6C6420690F
:104FDC007420746865726520756E74696C207468D1
:104FEC0065204C4544207475726E7320534F4C49A8
:104FFC0044205245442C207468656E2072656C65A3
:10500C0061736520746865206D6F7574687069656F
:10501C0063652E004D6F7665206D6F7574687069D1
:10502C0065636520746F207468652066757274689A
:10503C0065737420686F72697A6F6E74616C206C22
:10504C0065667420706F736974696F6E20616E642D
:10505C0020686F6C642069742074686572652075B3
:10506C006E74696C20746865204C454420747572AC
:10507C006E7320534F4C4944205245442C20746885
:10508C00656E2072656C6561736520746865206D52
:10509C006F75746870696563652E004A6F797374F7
:1050AC0069636B2073706565642063616C696272FF
:1050BC006174696F6E2070726F63656475726520C0
:1050CC00697320636F6D706C6574652E00636F6D12
:1050DC006D5F6D6F6465203D2030000D0A00426CE1
:1050EC007565746F6F7468204465657020536C65CA
:1050FC006570204D6F6465204163746976617465D9
:10510C006400636F6D6D5F6D6F6465203D203100D1
:10511C0053542C3235350053412C320053582C301B
:10512C0000534E2C4C697053796E6342545F417539
:10513C00746F6C6F61643300534D2C360053482CE4
:10514C003032323000537E2C360053512C30005309
:10515C003F2C3100522C3100426C7565746F6F74AA
:10516C006820636F6E66696775726174696F6E2013
:10517C006861732070726576696F75736C792062E3
:10518C0065656E20636F6D706C657465642E00438D
:10519C006F6E66696775726174696F6E2074696D84
:1051AC00653A2000202D2D2D20005468697320694C
:1051BC007320746865203039204D6179202D20468C
:1051CC00535220426C7565746F6F7468204575631B
:1051DC006C696465616E2057495000456E68616E5C
:1051EC006365642066756E6374696F6E733A005400
:1051FC00617020616E642064726167005363726F2A
:10520C006C6C696E67004A6F79737469636B2063A9
:10521C00616C6962726174696F6E004D6964646C73
:10522C0065206D6F75736520627574746F6E0048C0
:10523C00616E64732D6672656520686F6D65207094
:10524C006F736974696F6E696E67207265736574CC
:10525C0000437572736F722073656375726974792C
:10526C002073776970652066756E6374696F6E0064
:10527C00426C7565746F6F74682063617061626CE9
:10528C006520636F6E6E656374697669747900630B
:10529C006F6E6669675F646F6E653A200073706548
:1052AC0065645F636F756E7465723A200063757226
:1052BC00736F725F64656C61793A20006375727309
:1052CC006F725F666163746F723A200063757273FC
:1052DC006F725F6D61785F73706565643A200079F9
:1052EC00685F636F6D7020666163746F723A200043
:1052FC00796C5F636F6D7020666163746F723A20B6
:10530C000078685F636F6D7020666163746F723ACA
:10531C002000786C5F636F6D7020666163746F72D0
:10532C003A200078685F6D61783A2000786C5F6D88
:10533C0061783A200079685F6D61783A2000796C69
:10534C005F6D61783A20002B002D006E616E006954
:08535C006E66006F766600002A
:1070000055C000006EC000006CC000006AC00000E7
:1070100068C0000066C0000064C0000062C00000DC
:1070200060C000005EC00000FCC400005AC0000048
:1070300058C0000056C0000054C0000052C00000FC
:1070400050C000005DC000004CC000004AC00000FD
:1070500048C0000046C0000044C0000042C000001C
:1070600040C000003EC000003CC000003AC000002C
:1070700038C0000036C0000034C0000032C000003C
:1070800030C000002EC000002CC000002AC000004C
:1070900028C0000026C0000024C0000022C000005C
:1070A00020C000001EC000001CC0000011241FBE34
:1070B000CFEFDAE0DEBFCDBF11E0A0E0B1E0E6E463
:1070C000FFE702C005900D92A63AB107D9F711E08B
:1070D000A6EAB1E001C01D92AF3BB107E1F74FD383
:1070E00030C78ECFF89410926F001092810081E02B
:1070F00085BF15BE47985D9A289A0C9400000895A4
:107100001F920F920FB60F9211242F938F939F937C
:10711000EF93FF9310928500109284008091A60156
:107120009091A701009741F001979093A701809358
:10713000A601892B09F45D9A8091A8019091A9017B
:10714000009741F001979093A9018093A801892BA2
:1071500009F4289A8091AC019091AD010196909329
:10716000AD018093AC01E0E0F0E0859194918F5FF8
:107170009F4F49F08091AA019091AB0101969093A5
:10718000AB018093AA01FF91EF919F918F912F9175
:107190000F900FBE0F901F90189584E08093E90028
:1071A0000DC08091E8008B778093E80003C08EB318
:1071B000882351F08091E80082FFF9CF8091E800A8
:1071C00085FFEFCF8091F1000895982F83E08093A1
:1071D000E9008091E80085FD0DC08091E8008E7780
:1071E0008093E80003C08EB3882369F08091E800A3
:1071F00080FFF9CF9093F1005D9884E690E0909342
:10720000A7018093A60108954F925F926F927F929B
:107210008F929F92AF92BF92CF92DF92EF92FF92A6
:107220000F931F93CF93DF9384E08093E9008091C5
:10723000E80082FF57C2289884E690E09093A90165
:107240008093A801AADF182F853481F48CE49DE196
:107250009093AB018093AA0107B600FCFDCFF9998A
:10726000FECF81E180935700E89503C0843519F47F
:1072700094DF8DE00DC28C34E1F38035D1F3843797
:1072800021F484E4A2DF80E003C2813611F489E5B1
:10729000FFC18134B1F481DF182F7FDF90E0880FC8
:1072A000991FAA2797FDA095BA2F312F330F20E001
:1072B000442737FD4095542F822B932BA42BB52BBD
:1072C000B8C1803711F483E5E3C1833549F4C0E0E8
:1072D000D1E089917ADF21E0C730D207D1F7D9C157
:1072E000863521F481E371DF80E3D2C1833731F445
:1072F00087E86BDF85E969DF8EE1CAC18536B9F4BD
:10730000E0E0F0E093E085E090935700E89507B661
:1073100000FCFDCF80935700E89507B600FCFDCF39
:10732000E058FF4FA0E7E030FA0771F7A2CF8237AD
:1073300039F4E1E0F0E089E0809357008491A8C13E
:10734000863439F4E0E0F0E089E0809357008491DE
:107350009FC18E3439F4E3E0F0E089E08093570078
:10736000849196C1813539F4E2E0F0E089E08093C0
:10737000570084918DC1823631F489E526DF80E0A3
:1073800024DF80E885C1823419F0873609F0E5C032
:107390001092AB011092AA0100DF082FFEDEF82E3A
:1073A000FCDE682E8554823008F071C1902F80E099
:1073B000CF2DD0E0C82BD92B10926F00173609F0D3
:1073C0004BC081E180935700E895DD24CC24C39421
:1073D0003FC0E090AF01F090B0010091B101109179
:1073E000B201B6E46B16D9F4ED2DF0E0EE29FF29D9
:1073F000E4918E2FEADEDD2081F082E090E0A0E0D3
:10740000B0E0E80EF91E0A1F1B1FE092AF01F092D8
:10741000B0010093B1011093B201DC2418C0D8016F
:10742000C701B695A7959795879575D5CEDE82E06D
:1074300090E0A0E0B0E0E80EF91E0A1F1B1FE092EA
:10744000AF01F092B0010093B1011093B201219706
:10745000209709F0BECF7DC08090AF019090B00121
:10746000A090B101B090B20196E4691609F05DC038
:1074700083E0F40180935700E89507B600FCFDCF48
:1074800054C0F6E46F1661F5772031F1E090AF015A
:10749000F090B0010091B1011091B2017EDED82EC2
:1074A000CC24852D90E08C299D29F7010C01409278
:1074B0005700E895112482E090E0A0E0B0E0E80EEB
:1074C000F91E0A1F1B1FE092AF01F092B00100935A
:1074D000B1011093B20102C060DE582E742423C0A3
:1074E000E090AF01F090B0010091B1011091B201B4
:1074F00016950795F794E79450DE682FC70113D5CA
:107500008091AF019091B001A091B101B091B20111
:107510000296A11DB11D8093AF019093B001A0937D
:10752000B101B093B201219704C0552477244424BB
:107530004394209709F0A5CF96E4691641F485E0BD
:10754000F40180935700E89507B600FCFDCF8DE06D
:107550003CDE82E080936F009CC0833471F4009124
:10756000AF011091B00119DE90E021E0F8010C01AB
:1075700020935700E89511247CCE833619F5E090CE
:10758000AF01F090B0010091B1011091B20105DEA0
:10759000F701E16090E021E00C0120935700E895AD
:1075A000112482E090E0A0E0B0E0E80EF91E0A1F8E
:1075B0001B1FE092AF01F092B0010093B101109354
:1075C000B20157CE8D3661F4E091AF01F091B00178
:1075D00085E080935700E89507B600FCFDCF49CEC3
:1075E000823551F4E091AF01F091B0010591149111
:1075F000812FEBDD802F4CC0843421F5E090AF016A
:10760000F090B0010091B1011091B201169507956B
:10761000F794E794C2DD682FC70185D48091AF014C
:107620009091B001A091B101B091B2010296A11D5B
:10763000B11D8093AF019093B001A093B101B093BD
:10764000B20117CE843609F5E090AF01F090B00199
:107650000091B1011091B201D801C701B695A7956B
:107660009795879558D4B1DD82E090E0A0E0B0E036
:10767000E80EF91E0A1F1B1FE092AF01F092B00145
:107680000093B1011093B20104C08B3111F08FE36C
:107690009CDD83E08093E9009091E8008091E80010
:1076A0008E778093E80095FF04C010C08EB38823C6
:1076B000C9F08091E80080FFF9CF8091E8008E77D3
:1076C0008093E80003C08EB3882361F08091E800C6
:1076D00080FFF9CF84E08093E9008091E8008B7708
:1076E0008093E800DF91CF911F910F91FF90EF9071
:1076F000DF90CF90BF90AF909F908F907F906F90D2
:107700005F904F9008959091B701892F8F778132C4
:1077100049F58091B8018032A1F0813219F5913A92
:1077200009F58091E800877F8093E8008CE091E084
:1077300067E070E027D28091E8008B778093E800C3
:107740000895913279F48091E800877F8093E80072
:107750008CE091E067E070E079D28091E8008E776C
:107760008093E800089582E061EC42E0D1D083E0AC
:1077700061E842E1CDD084E060E842E1C9C01F93F6
