:100000000C9445010C946D010C946D010C946D01E0
:100010000C946D010C946D010C946D010C946D01A8
:100020000C946D010C946D010C946F110C943A12A8
:100030000C946D010C946D010C946D010C946D0188
:100040000C946D010C946D010C946D010C946D0178
:100050000C946D010C946D010C946D010C947A0557
:100060000C946D010C9472040C944C040C946D016E
:100070000C946D010C946D010C946D010C946D0148
:100080000C946D010C946D010C946D010C946D0138
:100090000C946D010C946D010C946D010C946D0128
:1000A0000C946D010C946D010C946D01A102A402DD
:1000B000930297029D02C502C502C502A802AC02C6
:1000C000B002B602BA02C502C00207634236B79B4D
:1000D000D8A71A39685618AEBAAB558C1D3CB7CCA8
:1000E0005763BD6DEDFD753EF6177231BF00000020
:1000F000803F08000000BE922449123EABAAAA2A03
:10010000BECDCCCC4C3E00000080BEABAAAAAA3E1D
:1001100000000000BF000000803F00000000000859
:100120004178D3BB4387D1133D190E3CC3BD4282F6
:10013000AD2B3E68EC8276BED98FE1A93E4C80EFB4
:10014000FFBE01C4FF7F3F0000000000070605045A
:100150000100080A0B0C0D09000000002400270014
:100160002A002D00300000000000250028002B0090
:100170002E003100000000002300260029002C0082
:100180002F00040404040403040502020202040311
:100190000202020206060606060604040202020421
:1001A0000404080201104080401020408040800874
:1001B00002040180402010020110801020404020E5
:1001C0000000000200090F0000030401000C000001
:1001D0000000000000000000000000000000000817
:1001E0000B000202020100090400000102020000EB
:1001F0000524001001052401010104240206052440
:100200000600010705810310004009040100020AED
:1002100000000007050202400000070583024000BD
:10022000000403090412010002EF020140412337D8
:100230008000010102030141726475696E6F204CF8
:100240004C430041726475696E6F204D6963726F33
:100250000005010902A1010901A100850105091993
:10026000012903150025019503750181029501758A
:1002700005810305010930093109381581257F758C
:100280000895038106C0C000FA2211241FBECFEFDB
:10029000DAE0DEBFCDBF29E0AEE1B7E001C01D92DC
:1002A000AE35B207E1F717E0A0E0B1E0EEE3F1E52B
:1002B00002C005900D92AE31B107D9F711E0C5E447
:1002C000D1E004C02197FE010E949228C434D107D6
:1002D000C9F70E940A160C949D280C940000FC019A
:1002E000538D448D252F30E0842F90E0821B930B9B
:1002F000541710F0CF96089501970895FC01918D41
:10030000828D981761F0828DDF01A80FB11D5D9677
:100310008C91928D9F5F9F73928F90E008958FEFE5
:100320009FEF0895FC01918D828D981731F0828D99
:10033000E80FF11D858D90E008958FEF9FEF0895F0
:10034000FC01918D228D892F90E0805C9F4F821B54
:1003500091098F73992708958DEA97E00E94A00173
:1003600021E0892B09F420E0822F0895FC01848D7F
:10037000DF01A80FB11DA35ABF4F2C91848D90E0CF
:1003800001968F739927848FA689B7892C93A089AA
:10039000B1898C9180648C93938D848D981306C061
:1003A0000288F389E02D80818F7D80830895EF920C
:1003B000FF920F931F93CF93DF93EC0181E0888F1F
:1003C0009B8D8C8D981305C0E889F989808185FD06
:1003D00024C0F62E0B8D10E00F5F1F4F0F731127F7
:1003E000E02E8C8DE8120CC00FB607FCFACFE8891E
:1003F000F989808185FFF5CFCE010E94B601F1CF4A
:100400008B8DFE01E80FF11DE35AFF4FF0820B8F39
:10041000EA89FB898081806207C0EE89FF89608359
:10042000E889F98980818064808381E090E0DF91B0
:10043000CF911F910F91FF90EF900895CF93DF938D
:10044000EC01888D8823C9F0EA89FB89808185FDCC
:1004500005C0A889B9898C9186FD0FC00FB607FC2D
:10046000F5CF808185FFF2CFA889B9898C9185FF6E
:10047000EDCFCE010E94B601E7CFDF91CF91089575
:1004800080E090E0892B29F00E94AC0181110C944E
:1004900000000895CF93DF931F92CDB7DEB7698335
:1004A000DC01ED91FC910280F381E02D41E050E010
:1004B000BE016F5F7F4F09950F90DF91CF91089537
:1004C00083E08093E9008091F200882319F08AE3A9
:1004D0008093E8000895FC018485958597FD0BC005
:1004E0009FB7F89482E08093E9008091F2009FBF6B
:1004F00090E0019608959FB7F89482E08093E90018
:100500008091F2009FBF90E00895089580E090E010
:10051000089590E0FC013197EF30F105B0F5EA5A0B
:10052000FF4F0C949228809180008F7703C08091B8
:1005300080008F7D80938000089580918000877F68
:10054000F9CF84B58F7702C084B58F7D84BD0895BF
:10055000809190008F7707C0809190008F7D03C0BD
:1005600080919000877F8093900008958091C000D3
:100570008F7703C08091C0008F7D8093C000089565
:100580008091C200877F8093C20008951F93CF930C
:10059000DF93282F30E0F901E054FE4F8491F901F8
:1005A000EF55FE4FD491F901EE57FE4FC491CC2385
:1005B000C9F0162F81110E948902EC2FF0E0EE0F96
:1005C000FF1FEA59FE4FA591B4918FB7F89411110E
:1005D00005C09C91ED2FE095E92302C0EC91ED2B35
:1005E000EC938FBFDF91CF911F9108953FB7F8949F
:1005F00080919F079091A007A091A107B091A207B9
:1006000026B5A89B05C02F3F19F00196A11DB11D6D
:100610003FBFBA2FA92F982F8827820F911DA11DA8
:10062000B11DBC01CD0142E0660F771F881F991FE5
:100630004A95D1F70895DC01FB0112968C9112972F
:1006400090E02481358182179307D1F491818081D4
:10065000813A31F481E0913091F0933089F411C006
:10066000813271F49B3021F482811F968C9305C0F6
:100670009A3031F4828150968C9381E008950895E8
:1006800080E00895DC01FB0188E4808389E48183B4
:1006900084E482831D969C911D979F709F5B93833A
:1006A0001D968D919C911E9724E0969587952A958D
:1006B000E1F78F708F5B848385E00895FC01828170
:1006C0008F5BFB01808381E00895CF93DF93EC0182
:1006D00080912801882331F083E00E94D4141816F9
:1006E000190634F081E090E09B838A8380E090E0FB
:1006F000DF91CF91089583E00E94C31490E00895A4
:10070000CF93DF931F92CDB7DEB7FC01848595852B
:1007100097FD05C02FEF3FEF358724870BC0CE0133
:1007200001960E944511019719F4898190E002C059
:100730008FEF9FEF0F90DF91CF9108950F931F934D
:10074000CF93DF931F92CDB7DEB78C01FC01848578
:10075000958597FF0EC0CE0101960E944511019725
:1007600019F4298130E002C02FEF3FEFF8013587FF
:100770002487F801848595850F90DF91CF911F9193
:100780000F9108950E949828EF92FF920F931F9364
:10079000CF93DF93FB012081213851F52381223251
:1007A00039F5DC0112962C9130E0448155814217D5
:1007B0005307F1F4EC010B851C85E12CF12C01159C
:1007C000110591F0F801448155816281738180E8BF
:1007D0000E94E1118F3FFFEF9F0769F0E80EF91EBD
:1007E000D8010D911C91EBCF81E08F87C70105C027
:1007F00080E090E002C08FEF9FEFDF91CF911F91DB
:100800000F91FF90EF900895CF93DF93CDB7DEB7B0
:1008100069970FB6F894DEBF0FBECDBFFC01DB01B8
:100820008C918F5F8C93BE016F5F7F4F89E1DB01FD
:100830001D928A95E9F729E0298384E08A8391E073
:100840009D8383E08E832A8721E22B879C879D8767
:100850009F8722E2288B27E02B8B25E02C8B8E8B29
:1008600020E430E0388F2F8B998F82818B839585A0
:100870008685998B8A8B838180688D8B49E150E0D6
:1008800080E00E94E11169960FB6F894DEBF0FBEBA
:10089000CDBFDF91CF9108951F920F920FB60F92A7
:1008A00011242F933F934F935F936F937F938F9375
:1008B0009F93AF93BF93EF93FF938DEA97E00E94CE
:1008C000B601FF91EF91BF91AF919F918F917F9171
:1008D0006F915F914F913F912F910F900FBE0F90AD
:1008E0001F9018951F920F920FB60F9211242F93FD
:1008F0008F939F93EF93FF93E091BD07F091BE0715
:100900008081E091C307F091C40782FD12C09081FD
:100910008091C6078F5F8F732091C707821751F0B0
:10092000E091C607F0E0E355F84F958F8093C60736
:1009300001C08081FF91EF919F918F912F910F9036
:100940000FBE0F901F901895CF93DF93282F30E0A4
:10095000F901E054FE4F8491F901EF55FE4FD49117
:10096000F901EE57FE4FC491CC2391F081110E9402
:100970008902EC2FF0E0EE0FFF1FEC58FE4FA5911F
:10098000B491EC91ED2381E090E021F480E002C08D
:1009900080E090E0DF91CF910895CF93DF9390E0D6
:1009A000FC01EF55FE4F2491FC01EE57FE4F849160
:1009B000882361F190E0880F991FFC01E85AFE4FEF
:1009C000C591D491FC01EA59FE4FA591B4916111F2
:1009D00009C09FB7F8948881209582238883EC9181
:1009E0002E230BC0623061F49FB7F8943881822FB8
:1009F000809583238883EC912E2B2C939FBF06C078
:100A00008FB7F894E8812E2B28838FBFDF91CF9189
:100A10000895823108F08251E82FF0E0E45BFE4F48
:100A2000E49180917B00E3FB222720F930E095E000
:100A3000220F331F9A95E1F78F7D282B20937B009F
:100A4000E770E064E0937C0080917A00806480939A
:100A50007A0080917A0086FDFCCF80917800209109
:100A6000790090E0922B08958F929F92AF92BF925F
:100A7000CF92DF92EF92FF926B017C010E94F6020F
:100A80004B015C01C114D104E104F104F1F00E94B6
:100A9000F602DC01CB0188199909AA09BB09883E35
:100AA0009340A105B10570F321E0C21AD108E10815
:100AB000F10888EE880E83E0981EA11CB11CC114B9
:100AC000D104E104F10419F7DDCFFF90EF90DF903E
:100AD000CF90BF90AF909F908F9008952FB7F894CC
:100AE00060919B0770919C0780919D0790919E0754
:100AF0002FBF08951F920F920FB60F9211242F93BC
:100B00003F938F939F93AF93BF9380919B07909157
:100B10009C07A0919D07B0919E0730919A0723E012
:100B2000230F2D3720F40196A11DB11D05C026E825
:100B3000230F0296A11DB11D20939A0780939B0756
:100B400090939C07A0939D07B0939E0780919F0769
:100B50009091A007A091A107B091A2070196A11DB5
:100B6000B11D80939F079093A007A093A107B09316
:100B7000A207BF91AF919F918F913F912F910F90BD
:100B80000FBE0F901F901895CF93DF93EC0181E07B
:100B90008C838D839E01265F3F4F3F832E83198672
:100BA000188625E731E0398328831C861B861E863C
:100BB0001D868F87888B81EC8A870E94F615FC0141
:100BC00021818C8190E0820F911D089774F5A2819C
:100BD000B381109719F4D383C2830CC018968D91FA
:100BE0009C911997009711F0DC01F8CF1996DC93CE
:100BF000CE93189780818A8381818B8390818D81A8
:100C0000890F808380E09C81891778F4AE81BF8151
:100C1000A80FB11D9C91A181B0E0AA5EBE4F9C932C
:100C200091819F5F91838F5FEECFDF91CF91089588
:100C3000AF92BF92CF92DF92EF92FF920F931F93EA
:100C4000CF93DF931F92CDB7DEB75C017B018B01A1
:100C50006C0184E0C80ED11CF80161918F01C501BF
:100C600069830E9469256981681719F0C5010E948E
:100C70007125FFEFAF1ABF0AAC14BD0469F7C701B5
:100C80000F90DF91CF911F910F91FF90EF90DF9028
:100C9000CF90BF90AF900895AF92BF92CF92DF9266
:100CA000EF92FF920F931F93CF93DF931F92CDB7D5
:100CB000DEB75C017B018B016C0182E0C80ED11CA8
:100CC000F80161918F01C50169830E9469256981DD
:100CD000681719F0C5010E947125FFEFAF1ABF0A0E
:100CE000AC14BD0469F7C7010F90DF91CF911F913C
:100CF0000F91FF90EF90DF90CF90BF90AF9008954D
:100D0000CF92DF92EF92FF920F931F93CF93DF93D7
:100D1000EB017B0124E0E20EF11C8B016C01C61A91
:100D2000D70AC601800F911F0E946925F80181939F
:100D30008F01EE15FF05A9F7CE01DF91CF911F912D
:100D40000F91FF90EF90DF90CF9008950F931F9336
:100D5000CF93DF938C01EB010E9469258883C80142
:100D600001960E9469258983CE01DF91CF911F9161
:100D70000F9108958F929F92AF92BF92CF92DF9280
:100D8000EF92FF92CF93DF9382E10E940905909347
:100D90004507809344076AE070E080E090E00E949D
:100DA000340580914407909145070E94361083E1F5
:100DB0000E94090590934307809342076AE070E020
:100DC00080E090E00E9434058091420790914307B3
:100DD0000E94361084E10E94090590934107809398
:100DE00040076AE070E080E090E00E943405809166
:100DF0004007909141070E9436108CE10E9409053E
:100E000090933F0780933E076AE070E080E090E0B7
:100E10000E94340580913E0790913F070E94361052
:100E2000809144079091450790933D0780933C073C
:100E3000809142079091430790933707809336073C
:100E4000809140079091410790933B0780933A0728
:100E500080913E0790913F07909339078093380720
:100E60002091240730912507809122079091230734
:100E7000821793070CF4C9012091200730912107B4
:100E800060911E0770911F07621773070CF4B90178
:100E9000681779072CF4BC01990F880B990B04C0D3
:100EA000072E000C880B990B0E944C246B017C01CF
:100EB00062E474E08AE498E00E94F415C701B60188
:100EC0000E946F10C0913A07D0913B07BE010D2ED2
:100ED000000C880B990B0E944C249B01AC01C701AC
:100EE000B6010E94A1254B015C01809120079091E1
:100EF00021078C1B9D0BBC01990F880B990B0E943D
:100F00004C249B01AC01C501B4010E940E266093E4
:100F10001001709311018093120190931301C091FD
:100F20003807D0913907BE010D2E000C880B990BA4
:100F30000E944C249B01AC01C701B6010E94A1256F
:100F40004B015C0180911E0790911F078C1B9D0B2C
:100F5000BC01990F880B990B0E944C249B01AC019A
:100F6000C501B4010E940E2660930C0170930D011F
:100F700080930E0190930F01C0913C07D0913D07E3
:100F8000BE010D2E000C880B990B0E944C249B0176
:100F9000AC01C701B6010E94A1254B015C01809103
:100FA0002407909125078C1B9D0BBC01990F880B82
:100FB000990B0E944C249B01AC01C501B4010E9415
:100FC0000E26609308017093090180930A019093A3
:100FD0000B01C0913607D0913707BE010D2E000CD2
:100FE000880B990B0E944C249B01AC01C701B601F0
:100FF0000E94A1256B017C0180912207909123071B
:101000008C1B9D0BBC01990F880B990B0E944C24E3
:101010009B01AC01C701B6010E940E26609304013A
:1010200070930501809306019093070160E171E0E0
:1010300086E090E00E9418066AE070E080E090E0B0
:101040000E9434056CE071E08AE090E00E9418068E
:101050006AE070E080E090E00E94340568E071E0B2
:101060008EE090E00E9418066AE070E080E090E078
:101070000E94340564E071E082E190E00E9418066D
:101080006AE070E080E090E00E9434056EE474E075
:101090008AE498E0DF91CF91FF90EF90DF90CF90BE
:1010A000BF90AF909F908F900C94E015CF93DF93FB
:1010B00061E085E10E94C60261E086E10E94C6020D
:1010C0006AE070E080E090E00E94340560E085E135
:1010D0000E94C6026AE070E080E090E00E94340561
:1010E000C3E0D0E061E086E10E94C60266E970E0FC
:1010F00080E090E00E94340560E086E10E94C60234
:1011000066E970E080E090E00E943405219751F795
:1011100060E086E10E94C6026AE070E080E090E054
:101120000E94340562E774E08DEA97E00E94F415AE
:1011300062E370E080E090E00E94340566E774E0CE
:101140008AE498E0DF91CF910C94E015CF93DF9380
:10115000CDB7DEB727970FB6F894DEBF0FBECDBF71
:101160008DEF898385E08A8382E08B831C821D82D8
:101170001E821F8247E050E0BE016F5F7F4F8DEA05
:1011800097E00E946A148DEA97E00E941E026AE0CE
:1011900070E080E090E00E94340527960FB6F89446
:1011A000DEBF0FBECDBFDF91CF910895CF93DF9308
:1011B000CDB7DEB727970FB6F894DEBF0FBECDBF11
:1011C0009DEF998395E09A8392E09B838C836D8356
:1011D0004E832F8347E050E0BE016F5F7F4F8DEA63
:1011E00097E00E946A148DEA97E00E941E026AE06E
:1011F00070E080E090E00E94340527960FB6F894E6
:10120000DEBF0FBECDBFDF91CF91089567E974E0D7
:101210008AE498E00E94E0158091340790913507A8
:10122000892B21F484E00E94281014C085E090E00E
:10123000909331078093300720E030E040E050E0A9
:1012400060E070E00E94D6080E94A6081092310764
:10125000109230076DE770E080E090E00C94340568
:10126000CF93DF9360EA74E08AE498E00E94E0158F
:101270008091340790913507892BE9F4C3E0D0E0E1
:1012800040E06EE780E00E94D50F2197C9F70E94E9
:101290000C106DE770E080E090E00E943405C3E040
:1012A000D0E040E062E880E00E94D50F2197C9F7C6
:1012B0000E941A1036C01092310710923007C3E016
:1012C000D0E020E030E04EE750E060E070E0809158
:1012D0003007909131070E94D608219791F76DE76A
:1012E00070E080E090E00E94340581E090E090930F
:1012F000310780933007C3E0D0E020E030E042E8DF
:101300005FEF60E070E080913007909131070E94BC
:10131000D608219791F70E94A608109231071092E3
:1013200030076DE770E080E090E0DF91CF910C94A2
:1013300034058F929F92AF92BF92CF92DF92EF923D
:10134000FF920F931F93CF93DF9300D000D0CDB7C0
:10135000DEB7E0903607F0903707E816F9060CF094
:1013600074C0BC0100912607109127076E197F09F0
:10137000072E000C880B990B0E944C244B015C013A
:1013800080912207909123078E199F09BC01990F24
:10139000880B990B0E944C249B01AC01C501B40140
:1013A0000E940E2620910401309105014091060112
:1013B000509107010E94AB2420E030E040EA5FE357
:1013C0000E94AB249B01AC01B801012E000C880BDC
:1013D000990B29833A834B835C830E944C24298197
:1013E0003A814B815C810E94BB266B017C0120E02D
:1013F00030E0A9010E94452418163CF0A70196018F
:1014000060E070E080E09FE307C0C701B60190583C
:1014100020E030E040E05FE30E94A1250E948026AA
:101420000E944C2420E030E040E85FE30E94A125C8
:101430000E94802688279927801B910B8617970783
:1014400034F4CB011816190614F480E090E00F90E4
:101450000F900F900F90DF91CF911F910F91FF9000
:10146000EF90DF90CF90BF90AF909F908F900895B6
:10147000AF92BF92CF92DF92EF92FF920F931F93A2
:10148000CF93DF9300D000D0CDB7DEB700913C07FB
:1014900010913D07081719070CF06CC0BC01A09013
:1014A0002607B0902707601B710B072E000C880BD6
:1014B000990B0E944C246B017C0180912407909130
:1014C0002507801B910BBC01990F880B990B0E947B
:1014D0004C249B01AC01C701B6010E940E2620914D
:1014E00008013091090140910A0150910B010E94BD
:1014F000AB2420E030E040EA5FE30E94AB249B0194
:10150000AC01B5010B2C000C880B990B29833A8395
:101510004B835C830E944C2429813A814B815C81FE
:101520000E94BB266B017C0120E030E0A9010E94F3
:10153000B62620E030E040E05FE387FD05C0C7014C
:10154000B6010E94A22504C0C701B6010E94A125D0
:101550000E9480260E944C2420E030E040E85FE3B7
:101560000E94A1250E9480266A157B052CF45B0150
:1015700077FF02C0A12CB12CC5010F900F900F90E6
:101580000F90DF91CF911F910F91FF90EF90DF901F
:10159000CF90BF90AF900895AF92BF92CF92DF925D
:1015A000EF92FF920F931F93CF93DF9300D000D061
:1015B000CDB7DEB700913807109139070817190722
:1015C0000CF06CC0BC01A0902607B0902707601BF0
:1015D000710B072E000C880B990B0E944C246B0199
:1015E0007C0180911E0790911F07801B910BBC010D
:1015F000990F880B990B0E944C249B01AC01C701E9
:10160000B6010E940E2620910C0130910D014091EF
:101610000E0150910F010E94AB2420E030E040EA1F
:101620005FE30E94AB249B01AC01B5010B2C000CC5
:10163000880B990B29833A834B835C830E944C244B
:1016400029813A814B815C810E94BB266B017C0120
:1016500020E030E0A9010E94B62620E030E040E022
:101660005FE387FD05C0C701B6010E94A22504C043
:10167000C701B6010E94A1250E9480260E944C2429
:1016800020E030E040E85FE30E94A1250E94802630
:101690006A157B052CF45B0177FF02C0A12CB12CED
:1016A000C5010F900F900F900F90DF91CF911F9178
:1016B0000F91FF90EF90DF90CF90BF90AF90089583
:1016C0008F929F92AF92BF92CF92DF92EF92FF9252
:1016D0000F931F93CF93DF9300D000D0CDB7DEB729
:1016E000E0903A07F0903B07E816F9060CF074C05A
:1016F000BC0100912607109127076E197F09072E5C
:10170000000C880B990B0E944C244B015C018091CA
:101710002007909121078E199F09BC01990F880B12
:10172000990B0E944C249B01AC01C501B4010E949D
:101730000E2620911001309111014091120150911B
:1017400013010E94AB2420E030E040EA5FE30E94F6
:10175000AB249B01AC01B801012E000C880B990B46
:1017600029833A834B835C830E944C2429813A81EC
:101770004B815C810E94BB266B017C0120E030E044
:10178000A9010E94452418163CF0A701960160E0CB
:1017900070E080E09FE307C0C701B601905820E0E9
:1017A00030E040E05FE30E94A1250E9480260E9475
:1017B0004C2420E030E040E85FE30E94A1250E9435
:1017C000802688279927801B910B8617970734F46A
:1017D000CB011816190614F480E090E00F900F90DA
:1017E0000F900F90DF91CF911F910F91FF90EF908D
:1017F000DF90CF90BF90AF909F908F900895BF9251
:10180000CF92DF92EF92FF920F931F93CF93DF93CC
:1018100083E2B82E84E10E9409058C018CE10E94CC
:101820000905EC0187E10E940905BC01990F880BAD
:10183000990B0E944C2420E030EC4FE754E40E94C6
:101840000E2620E030E040EA50E40E94AB246B0119
:101850007C01809134079091350720913A073091AF
:101860003B07225E3F4F892BC9F42017310724F430
:10187000C8010E94600B0BC0809138079091390716
:101880004E968C179D07C4F5CE010E94CC0A482FB6
:10189000419560E080E00E94D50F1EC020173107FF
:1018A00024F4C8010E94600B0BC08091380790910E
:1018B00039074E968C179D07FCF4CE010E94CC0A86
:1018C00022273327281B390B40E050E060E070E00E
:1018D00080E090E00E94D608809132079091330713
:1018E000B89EB001B99E700D1124072E000C880B14
:1018F000990B0E9434058ECF20912807309129073B
:1019000040912A0750912B07C701B6010E94B626C5
:10191000181674F020912C0730912D0740912E0756
:1019200050912F07C701B6010E94452487FF72CF4F
:101930006AEF70E080E090E0DF91CF911F910F910E
:10194000FF90EF90DF90CF90BF900C943405CF9232
:10195000DF92EF92FF920F931F93CF93DF93EC01EF
:1019600097FF03C0D195C195D1094230510521F1AE
:1019700043305105F1F14130510509F066C000E0F6
:1019800010E06B01770FEE08FF080C171D0709F434
:101990005CC061E084E00E94C602C701B6010E94FB
:1019A000340560E084E00E94C602C701B6010E94CF
:1019B00034050F5F1F4FE9CF00E010E06B01770F98
:1019C000EE08FF080C171D0709F43FC061E085E031
:1019D0000E94C602C701B6010E94340560E085E09E
:1019E0000E94C602C701B6010E9434050F5F1F4F57
:1019F000E9CF00E010E06B01770FEE08FF080C174D
:101A00001D0719F161E084E00E94C602C701B6011A
:101A10000E94340560E084E00E94C602C701B6015E
:101A20000E94340561E085E00E94C602C701B6014C
:101A30000E94340560E085E00E94C602C701B6013D
:101A40000E9434050F5F1F4FDACFDF91CF911F91B6
:101A50000F91FF90EF90DF90CF9008958F929F921B
:101A6000AF92BF92CF92DF92EF92FF92CF93DF932C
:101A700067EA74E08AE498E00E94E0156BE872E09F
:101A80008AE498E00E94E01543E050E06CE271E0E7
:101A900084E090E00E94A70C69EC74E08AE498E08E
:101AA0000E94E01541E050E064EF71E086E090E0D4
:101AB0000E94A70C84E10E9409059093210780935E
:101AC000200742E050E068EE73E081E090E00E9481
:101AD000A70C80912007909121070E9436106CE49A
:101AE00075E08AE498E00E94E01541E050E064EF80
:101AF00071E086E090E00E94A70C82E10E94090557
:101B0000909325078093240742E050E068EE73E04D
:101B100081E090E00E94A70C809124079091250716
:101B20000E94361064ED75E08AE498E00E94E015AA
:101B300041E050E064EF71E086E090E00E94A70C85
:101B40008CE10E94090590931F0780931E0742E0D5
:101B500050E068EE73E081E090E00E94A70C809175
:101B60001E0790911F070E94361069E576E08AE40F
:101B700098E00E94E01541E050E064EF71E086E0FB
:101B800090E00E94A70C83E10E940905909323072F
:101B90008093220742E050E068EE73E081E090E03D
:101BA0000E94A70C80912207909123070E94361073
:101BB00020912407309125078091220790912307D7
:101BC000821793070CF4C901209120073091210757
:101BD00060911E0770911F07621773070CF4B9011B
:101BE000681779072CF4BC01990F880B990B04C076
:101BF000072E000C880B990B0E944C246B017C0172
:101C000062E474E08AE498E00E94F415C701B6012A
:101C10000E946F10C0913A07D0913B07BE010D2E74
:101C2000000C880B990B0E944C249B01AC01C7014E
:101C3000B6010E94A1254B015C0180912007909183
:101C400021078C1B9D0BBC01990F880B990B0E94DF
:101C50004C249B01AC01C501B4010E940E26609387
:101C60001001709311018093120190931301C091A0
:101C70003807D0913907BE010D2E000C880B990B47
:101C80000E944C249B01AC01C701B6010E94A12512
:101C90004B015C0180911E0790911F078C1B9D0BCF
:101CA000BC01990F880B990B0E944C249B01AC013D
:101CB000C501B4010E940E2660930C0170930D01C2
:101CC00080930E0190930F01C0913C07D0913D0786
:101CD000BE010D2E000C880B990B0E944C249B0119
:101CE000AC01C701B6010E94A1254B015C018091A6
:101CF0002407909125078C1B9D0BBC01990F880B25
:101D0000990B0E944C249B01AC01C501B4010E94B7
:101D10000E26609308017093090180930A01909345
:101D20000B01C0913607D0913707BE010D2E000C74
:101D3000880B990B0E944C249B01AC01C701B60192
:101D40000E94A1256B017C018091220790912307BD
:101D50008C1B9D0BBC01990F880B990B0E944C2486
:101D60009B01AC01C701B6010E940E2660930401DD
:101D700070930501809306019093070160E171E083
:101D800086E090E00E9418066AE070E080E090E053
:101D90000E9434056CE071E08AE090E00E94180631
:101DA0006AE070E080E090E00E94340568E071E055
:101DB0008EE090E00E9418066AE070E080E090E01B
:101DC0000E94340564E071E082E190E00E94180610
:101DD0006AE070E080E090E00E94340564E277E021
:101DE00086E190E00E944C066AE070E080E090E0BE
:101DF0000E94340562E277E088E190E00E944C06A0
:101E00006AE070E080E090E00E94340560E277E0F4
:101E10008AE190E00E944C066AE070E080E090E089
:101E20000E9434056EE177E08CE190E00E944C0660
:101E30006AE070E080E090E00E94340543E050E00A
:101E40006AEF70E085E090E00E94A70C6BE872E01A
:101E50008AE498E00E94E01560EE76E08AE498E07B
:101E6000DF91CF91FF90EF90DF90CF90BF90AF9038
:101E70009F908F900C94E01582E10E940905909349
:101E800045078093440783E10E9409059093430727
:101E90008093420784E10E94090590934107809353
:101EA00040078CE10E94090590933F0780933E070D
:101EB00061E085E00E94C60280913C0790913D0759
:101EC000C2962091440730914507821793071CF46E
:101ED0000E94060929C08091360790913707C29663
:101EE0002091420730914307821793078CF380912A
:101EF0003A0790913B07C2962091400730914107E5
:101F0000821793071CF40E9430090EC08091380795
:101F100090913907C29620913E0730913F07821772
:101F200093070CF0A9CFEFCF60E085E00C94C602D8
:101F3000CF92DF92EF92FF920F931F93CF93DF9395
:101F40001F92CDB7DEB7182F062FE42E862F880FED
:101F50008E5F99830E94951483E00E949514F12E60
:101F6000C12E9981D92E8C2D8F19801798F4F601E6
:101F7000E7FE02C0849101C080810E949514182F51
:101F800080E00E9495148123FFEFCF1ADF0A8111B0
:101F9000EACF01C081E00F90DF91CF911F910F91A7
:101FA000FF90EF90DF90CF900895CF93DF9300D014
:101FB00000D01F92CDB7DEB79091E20899838A8353
:101FC0006B834C8380913C09811107C08BE299E0BF
:101FD0000E94C40581E080933C0981E08D8341E04B
:101FE00050E0BE016B5F7F4F80912E090E94D41498
:101FF00097FD0AC080912E0944E050E0BE016F5F5A
:102000007F4F80640E94D4140F900F900F900F9018
:102010000F90DF91CF9108959091E208892F816010
:10202000891739F08093E20840E060E080E00C948A
:10203000D50F08959091E208892F8E7F891739F086
:102040008093E20840E060E080E00C94D50F0895B2
:102050008093E20840E060E080E00E94D50F10929B
:10206000E20840E060E080E00C94D50FCF92DF9270
:10207000EF92FF92CF93DF936C01990FEE08FF0868
:10208000F7FE16C06DE28AE498E00E947B15EC0131
:1020900044275527BA014C195D096E097F092AE0CA
:1020A0008AE498E00E9497157C01EC0EFD1E08C0A2
:1020B0002AE0B701A6018AE498E00E9497157C0106
:1020C00060EB71E08AE498E00E9482158E0D9F1DFE
:1020D000DF91CF91FF90EF90DF90CF9008954F92D6
:1020E0005F926F927F928F929F92AF92BF92CF92A8
:1020F000DF92EF92FF926B017C019B01AC010E9489
:102100005127882319F062E177E01AC04601570190
:10211000E894B7F82FEF3FEF4FE75FE7C501B40151
:102120000E945127811112C02FEF3FEF4FE75FE769
:10213000C501B4010E944524181644F466E177E015
:102140008AE498E00E9482157C018AC02FEF3FEF5D
:102150004FE75FE4C701B6010E94B62618161CF4CB
:102160006AE177E0EDCF2FEF3FEF4FE75FECC7017C
:10217000B6010E94452487FDF3CF20E030E0A9019D
:10218000C701B6010E94452487FF0BC06DE28AE4B7
:1021900098E00E947B155C01F7FAF094F7F8F09450
:1021A00002C0A12CB12C2AE037ED43EA5BE3C70162
:1021B000B6010E94A2252B013C010E9487266B01DB
:1021C0007C010E944A249B01AC01C301B2010E9420
:1021D000A1252B013C012AE0B701A6018AE498E081
:1021E0000E9497157C01EA0CFB1C6EE28AE498E0E1
:1021F0000E947B15E80EF91E20E030E040E251E439
:10220000C301B2010E94AB242B013C010E9487262E
:102210004B01A12CB12C2AE0B501A4018AE498E07D
:102220000E949715E80EF91EC501B4010E944A24C8
:102230009B01AC01C301B2010E94A12520E030E066
:1022400040E251E40E94AB240E948726AB0160E08B
:1022500070E02AE08AE498E00E949715E80EF91EE3
:1022600060EB71E08AE498E00E9482158E0D9F1D5C
:10227000FF90EF90DF90CF90BF90AF909F908F90A6
:102280007F906F905F904F900895FC018091AC0714
:10229000811103C08FEF9FEF08959FB7F89482E0FC
:1022A0008093E9002091F20030E01216130614F436
:1022B00021E030E02115310559F0289A84E6809319
:1022C000AB078091F10080838091F200882319F0A0
:1022D0009FBFC90108958BE68093E800F9CF1F9254
:1022E0000F920FB60F9211248F939F938091E1006C
:1022F0009091E100937F9093E10083FF0FC01092D3
:10230000E90091E09093EB001092EC0092E390933F
:10231000ED001092AC0798E09093F00082FF20C08F
:1023200093E09093E9009091F200992319F09AE3D9
:102330009093E8009091AA07992339F09091AA0709
:1023400091509093AA07992389F19091AB07992313
:1023500039F09091AB0791509093AB07992341F1DD
:1023600084FF10C08091E2008E7E81608093E20045
:102370008091E1008F7E8093E1008091A9078E7E9D
:10238000806111C080FF16C08091E2008E7E806166
:102390008093E2008091E1008E7E8093E100809145
:1023A000A9078E7E81608093A90704C05D98CDCF78
:1023B0002898D6CF9F918F910F900FBE0F901F90AE
:1023C0001895DF92EF92FF920F931F93CF93DF93B5
:1023D000D82E8A017B01E40EF51EEB01CE15DF0538
:1023E00071F0D7FE03C0FE01849101C088810E9474
:1023F000951421968111F2CF8FEF9FEF01C0C80194
:10240000DF91CF911F910F91FF90EF90DF90089592
:102410000F931F93CF93DF931F92CDB7DEB782E068
:10242000898342E450E06FED71E080E80E94E111A1
:102430000E94F615DC0112960D911C91139701155F
:10244000110569F0D801ED91FC910280F381E02D36
:10245000BE016F5F7F4FC801099597FF07C0898153
:102460000F90DF91CF911F910F910895F801008592
:102470001185E5CF1F920F920FB60F921124CF92C4
:10248000DF92EF92FF920F931F932F933F934F93FF
:102490005F936F937F938F939F93AF93BF93EF93CC
:1024A000FF93CF93DF93CDB7DEB76C97DEBFCDBF81
:1024B0001092E9008091E80083FFEDC168E0CE0151
:1024C00045960E946E1582EF8093E8008D8987FF04
:1024D00005C09091E80090FFFCCF03C09EEF909361
:1024E000E800982F907609F0C6C09E892F89188D34
:1024F00091110CC0803829F48091A8078093F100D5
:1025000002C01092F1001092F10048C1422F50E039
:10251000512B913051F4811141C14130510509F0E5
:102520003DC18091A8078D7F0BC0933061F481116C
:1025300035C14130510509F031C18091A807826051
:102540008093A8072BC1953041F48091E80080FF6B
:10255000FCCF20682093E30021C1963009F05FC0D2
:10256000EB8CFC8C1092E9001092A6071092A50744
:10257000123091F51092A4071092A3070E9408123E
:1025800099E0BE016F5F7F4FDB01E92F1D92EA9555
:10259000E9F799831A8391E09E8390EA98879AEFEE
:1025A00099872091A5073091A607275F3F4F3C836D
:1025B0002B838D831092E9001092A6071092A50735
:1025C000F092A407E092A30749E050E080E00E9467
:1025D000E1110E940812E2C0F092A407E092A30762
:1025E0000E94F615DC011296ED90FC901397E11411
:1025F000F10409F4C0C0D701ED91FC910480F5818C
:10260000E02DBE016B5E7F4FC7010995009719F061
:102610000CF0C4C0C7C0F701E084F184E8CF973064
:1026200009F4C0C0983021F481E08093F100B6C075
:10263000993009F0B3C0837009F0B4C0E7E1F1E06C
:1026400081E021E036E39081992361F08093E900F5
:102650002093EB0091919093EC003093ED008F5F0D
:10266000873089F78EE78093EA001092EA008F891D
:102670008093AC0793C08B8D9C8D1092E9001092D3
:10268000A6071092A5079093A4078093A307898DAE
:10269000811156C08E899D89913A59F4813209F091
:1026A00081C047E050E061E271E080E00E94E1110A
:1026B00075C0913209F076C0833289F4888D90E03C
:1026C000982F88272F89822BA0E0B0E080931D01EE
:1026D00090931E01A0931F01B09320015FC0803230
:1026E00069F48091E80082FFFCCF67E081E291E02D
:1026F0000E946E158BEF8093E80006C0823209F0CD
:102700004DC08F89809328018091A707882319F0F5
:10271000EEEFFAE002C0E0E0F8E080912101909154
:102720002201A0912301B0912401803B9440A10596
:10273000B10509F07BC08091280180FF93C076C06D
:102740000E94F615DC0112960D911C91139701154C
:10275000110541F1D801ED91FC910190F081E02D3E
:10276000BE016B5E7F4FC8010995811117C0F8014A
:1027700000851185ECCF113009F44EC0133091F46F
:102780008F89882309F445C0823081F440E86DE0E8
:1027900083E492E00E94980F882321F08EEF8093CB
:1027A000E80079C081E28093EB0075C0813029F4A4
:1027B00040E86BE087E392E0EDCF833099F70E9429
:1027C000F615DC011296ED90FC9013978E010F5FC9
:1027D0001F4F6801E114F10479F0D701ED91FC91EC
:1027E0000680F781E02DB801C7010995080F111D7A
:1027F000F701E084F184EECFD8011C92F60101903C
:102800000020E9F73197BF016C197D0940E0C6014E
:10281000C1CF61E272E002C065E272E0611571054C
:1028200009F2FB01449150E080E840CF0FB6F894E4
:10283000A89580916000886180936000109260008C
:102840000FBEA895EE3F2AE0F20739F08091FE0A0C
:102850009091FF0A91838083A1CF1092FF0A10927A
:10286000FE0A9CCFEE3F8AE0F80731F0808191812B
:102870009093FF0A8093FE0A87E797E7918380830E
:102880009BE088E10FB6F894A895809360000FBE96
:102890009093600083CF6C960FB6F894DEBF0FBEA6
:1028A000CDBFDF91CF91FF91EF91BF91AF919F91FC
:1028B0008F917F916F915F914F913F912F911F91D8
:1028C0000F91FF90EF90DF90CF900F900FBE0F9081
:1028D0001F901895CF92DF92EF92FF920F931F9364
:1028E000CF93DF936C017A018B01C0E0D0E0CE156D
:1028F000DF0589F0D8016D918D01D601ED91FC9134
:102900000190F081E02DC6010995892B11F47E011B
:1029100002C02196ECCFC701DF91CF911F910F919B
:10292000FF90EF90DF90CF9008954091A5075091D0
:10293000A6072091A3073091A40742175307B4F4C8
:102940009091E8009570E1F39091E80092FD19C034
:102950008093F1008091A5079091A60701968F734F
:102960009927892B19F48EEF8093E8008091A507B1
:102970009091A60701969093A6078093A50781E002
:10298000089580E008952FB7F89487708093E90048
:102990009091E800892F807295FF04C09091F20019
:1029A00080E4891B2FBF08957F928F929F92AF92F0
:1029B000BF92CF92DF92EF92FF920F931F93CF932C
:1029C000DF93C82E8B017A018091AC07811103C07F
:1029D0008FEF9FEF75C08091A90780FF05C08091A0
:1029E000E00082608093E000CE2DDF2DD12C8AEFB5
:1029F000882E8C2D8770B82E8C2D8072A82E8C2D51
:102A00008074982E9AE3792E209709F452C08C2D69
:102A10000E94C314282F81110AC08A948820C1F211
:102A200061E070E080E090E00E943405EDCF90E03E
:102A3000C817D9070CF42C2F3FB7F894B092E900CF
:102A40008091E80085FF33C0822F90E0C81BD90B2E
:102A5000AA2029F02150A8F01092F100FBCFF80134
:102A6000C7FE07C0215058F044914093F1003196C1
:102A7000F9CF215020F041914093F100FACF080F97
:102A8000191FDD2019F07092E8000AC08091E8005B
:102A900085FD08C07092E800DD24D394209739F0BA
:102AA000D12C05C0209719F491107092E8003FBF17
:102AB000ABCFD110ACCF5D9A84E68093AA07C70153
:102AC000DF91CF911F910F91FF90EF90DF90CF900A
:102AD000BF90AF909F908F907F900895615030F09D
:102AE0002091F100FC0120830196F8CF289A84E61A
:102AF0008093AB070895DC01ED91FC910190F0818A
:102B0000E02D09946115710579F0FB010190002019
:102B1000E9F73197AF01461B570BDC01ED91FC91B2
:102B20000280F381E02D099480E090E008954F92B7
:102B30005F926F927F92EF92FF920F931F93CF93CA
:102B4000DF93CDB7DEB7A1970FB6F894DEBF0FBE07
:102B5000CDBF7C01FA01CB0119A2223008F42AE092
:102B60008E010F5D1F4F422E512C612C712CBF0125
:102B7000A30192010E947F25F901CA0101501109A8
:102B80006A3014F4605D01C0695CD8016C93232B3A
:102B9000242B252B61F7B801C7010E948215A1964D
:102BA0000FB6F894DEBF0FBECDBFDF91CF911F915E
:102BB0000F91FF90EF907F906F905F904F900895EE
:102BC0000F931F93CF93DF93EC010E9482158C012A
:102BD00060EB71E0CE010E948215800F911FDF91A2
:102BE000CF911F910F9108950C94821580915609F1
:102BF00081110DC082E08093520984E080935309D3
:102C0000109255091092540981E08093560982E58B
:102C100099E00895CF93DF93CDB7DEB767970FB6EE
:102C2000F894DEBF0FBECDBF789484B5826084BDBA
:102C300084B5816084BD85B5826085BD85B58160C0
:102C400085BD80916E00816080936E00109281003E
:102C500080918100826080938100809181008160F9
:102C600080938100809180008160809380008091BA
:102C700091008260809391008091910081608093A7
:102C80009100809190008160809390008091C100BC
:102C900084608093C1008091C10082608093C100F4
:102CA0008091C10081608093C1008091C3008160E8
:102CB0008093C3008091C00082608093C0008091A7
:102CC000C20081608093C20080917A00846080930A
:102CD0007A0080917A00826080937A0080917A00F5
:102CE000816080937A0080917A00806880937A0076
:102CF0001092AC071092A8071092A9078091D700F4
:102D000081608093D70080EA8093D80089B5806184
:102D100089BD89B5826089BD09B400FEFDCF61E03F
:102D200070E080E090E00E9434058091D8008F7CB4
:102D300080618093D8008091E000807F8093E000E4
:102D40008091E1008E7E8093E1008DE08093E2002F
:102D5000559A209A5D982898EEEFFFE78591949117
:102D60008B3F9C4D19F481E08093A7071092DE08F9
:102D70001092DF081092E0081092E10810929C086F
:102D800010929D0810929E0810929F080E946E0556
:102D90006B017C014B015C0138EB830E3BE0931E21
:102DA000A11CB11C0E946E056C157D058E059F054A
:102DB00028F086169706A806B906A0F78AE498E0D8
:102DC0009093DD088093DC080BE110E0F09028017F
:102DD0006AE070E080E090E00E943405F1100AC0E3
:102DE0000150110939F064E670E080E090E00E9443
:102DF0003405ECCFE091DC08F091DD088FEF9FEF18
:102E0000958784870E946E0560939C0870939D0847
:102E100080939E0890939F0861EA71E08091DC089E
:102E20009091DD080E94F4150E946E056B017C01F3
:102E30004B015C014AE0840E911CA11CB11C0E9454
:102E40006E056C157D058E059F0528F08616970684
:102E5000A806B906A0F781E08093B0088FEF9FEF36
:102E60009093570880935608E091BD07F091BE07F4
:102E700082E08083E091B907F091BA071082E09177
:102E8000BB07F091BC0780E180831092C507E091F9
:102E9000C107F091C20786E08083E091BF07F091FF
:102EA000C007808180618083E091BF07F091C007F7
:102EB000808188608083E091BF07F091C0078081A6
:102EC00080688083E091BF07F091C00780818F7D8B
:102ED000808361E084E00E94CD0461E085E00E948F
:102EE000CD0461E085E10E94CD0461E086E10E94AD
:102EF000CD0460E087E10E94CD0460E082E10E94A1
:102F0000CD0460E083E10E94CD0460E084E10E9492
:102F1000CD0460E08CE10E94CD0462E08CE00E9470
:102F2000CD0462E088E00E94CD0462E087E00E9468
:102F3000CD0462E082E00E94CD0462E083E00E9462
:102F4000CD0462E089E00E94CD0462E08BE00E9443
:102F5000CD0462E08DE00E94CD0482E10E9409056B
:102F60005C0190934507809344076AE070E080E03D
:102F700090E00E94340583E10E9409056C01909362
:102F80004307809342076AE070E080E090E00E948F
:102F9000340584E10E9409057C01909341078093E8
:102FA00040076AE070E080E090E00E9434058CE128
:102FB0000E9409058C0190933F0780933E076AE0C9
:102FC00070E080E090E00E943405B0923D07A0924E
:102FD0003C07D0923707C0923607F0923B07E09249
:102FE0003A07109339070093380760E171E086E0F3
:102FF00090E00E9480066AE070E080E090E00E942D
:1030000034056CE071E08AE090E00E9480066AE09E
:1030100070E080E090E00E94340568E071E08EE0AE
:1030200090E00E9480066AE070E080E090E00E94FC
:10303000340564E071E082E190E00E9480066AE07D
:1030400070E080E090E00E94340564E277E086E181
:1030500090E00E94A6066AE070E080E090E00E94A6
:10306000340562E277E088E190E00E94A6066AE01B
:1030700070E080E090E00E94340560E277E08AE151
:1030800090E00E94A6066AE070E080E090E00E9476
:1030900034056EE177E08CE190E00E94A6066AE0DC
:1030A00070E080E090E00E94340580E090E0A0EFC6
:1030B000B1E48093000190930101A0930201B093C9
:1030C000030180937E0790937F07A0938007B093BE
:1030D000810780937A0790937B07A0937C07B09336
:1030E0007D078093760790937707A0937807B09336
:1030F00079078093720790937307A0937407B09336
:1031000075076AE070E080E090E00E94340587E196
:103110000E940905BC01990F880B990B0E944C2451
:1031200020E030E040E85AE30E94AB2420E030E0A9
:1031300040EA50E40E94AB246B017C0120E030E0C7
:1031400040E05FE30E94A22560932807709329075F
:1031500080932A0790932B0720E030E040E05FE364
:10316000C701B6010E94A12560932C0770932D071B
:1031700080932E0790932F076AE070E080E090E044
:103180000E94340580E090E0A0E8BFE389839A8341
:10319000AB83BC83BE016B5F7F4F84E090E00E94F5
:1031A000A6066AE070E080E090E00E9434058D8120
:1031B0009E81019709F465C01A861986BE01675F72
:1031C0007F4F80E090E00E944C066AE070E080E073
:1031D00090E00E94340584E090E098878F83BE01E0
:1031E000695F7F4F82E090E00E944C066AE070E0E9
:1031F00080E090E00E943405BE016F5F7F4F86E063
:1032000090E00E9418066AE070E080E090E00E9482
:103210003405BE016F5F7F4F8AE090E00E94180680
:103220006AE070E080E090E00E943405BE016F5FCC
:103230007F4F8EE090E00E9418066AE070E080E028
:1032400090E00E943405BE016F5F7F4F82E190E005
:103250000E9418066AE070E080E090E00E94340569
:1032600081E090E09E838D83BE016B5F7F4F84E0A1
:1032700090E00E944C066AE070E080E090E00E94DE
:1032800034056AE070E080E090E00E9434056AE076
:1032900070E080E090E00E9434058CE00E94A4047D
:1032A000892B09F041C0109235071092340763EB67
:1032B00071E08AE498E00E94E0150E9456086AE5F1
:1032C0008DEA97E00E947B1560EB71E08DEA97E054
:1032D0000E9482156AE070E080E090E00E94340570
:1032E0008DEA97E00E94A0011816190654F48DEAA1
:1032F00097E00E947E01682F8AE498E00E947B1587
:10330000EFCF61EC71E08AE498E00E94E0156AE09A
:1033100070E080E090E00E9434056AE070E080E0B8
:1033200090E00E94340516C08CE00E94A404813015
:10333000910581F490933507809334076AE070E03B
:1033400080E090E00E94340565EE71E08AE498E048
:103350000E94E0156AE070E080E090E00E94340591
:1033600000913407109135070115110531F469E119
:1033700070E080E090E00E9434056AE070E080E058
:1033800090E00E9434050130110509F0E0C083E0AF
:1033900090E09A838983BE016F5F7F4F80E090E069
:1033A0000E94A6066AE070E080E090E00E9434058A
:1033B00089819A810E943610E980FA80F09247074D
:1033C000E09246076AE070E080E090E00E943405F9
:1033D0006AE070E080E090E00E943405EF2809F098
:1033E000AAC00E94560863EF71E08DEA97E00E9440
:1033F000E0156FE070E080E090E00E9434056AEF35
:1034000071E08DEA97E00E94E0156FE070E080E0E7
:1034100090E00E9434056FEF71E08DEA97E00E9422
:10342000E0156FE070E080E090E00E94340564E019
:1034300072E08DEA97E00E94E0156FE070E080E0B6
:1034400090E00E9434056BE172E08DEA97E00E9403
:10345000E0156FE070E080E090E00E94340560E2EB
:1034600072E08DEA97E00E94E0156FE070E080E086
:1034700090E00E94340568E272E08DEA97E00E94D5
:10348000E0156FE070E080E090E00E9434056DE2AE
:1034900072E08DEA97E00E94E0156FE070E080E056
:1034A00090E00E94340562E372E08DEA97E00E94AA
:1034B000E0156FE070E080E090E00E94340567E383
:1034C00072E08DEA97E00E94E0156FE070E080E026
:1034D00090E00E94340518870F8380911401909129
:1034E00015019E838D83BE01695F7F4F80E090E070
:1034F0000E944C066FE070E080E090E00E9434058E
:10350000BE016B5F7F4F82E090E00E944C066FE04F
:1035100070E080E090E00E943405BE016F5F7F4F55
:1035200080E090E00E94A6066FE070E080E090E00E
:103530000E94340506C06BE372E08AE498E00E94C2
:10354000E0156AE070E080E090E00E9434056AE0F7
:1035500070E080E090E00E943405BE016F5F7F4F15
:1035600082E090E00E94A60665E070E080E090E0D6
:103570000E94340589819A819093150180931401EA
:103580006AE070E080E090E00E9434050E946E05E1
:103590006B017C0162E772E08AE498E00E94F41516
:1035A000C6010E94361043E050E06AEF70E084E00C
:1035B00090E00E94A70C8091340790913507892BE9
:1035C000B1F440E060E081E00E94D50F69E170E075
:1035D00080E090E00E94340540E060E08FEF0E94C0
:1035E000D50F69E170E080E090E00E9434056BE85F
:1035F00072E08AE498E00E94E01567E872E08AE4ED
:1036000098E00E94E0156DE872E08AE498E00E947C
:10361000E0156BE872E08AE498E00E94E0156EEB3A
:1036200072E08AE498E00E94E0156BE872E08AE4B8
:1036300098E00E94E01562ED72E08AE498E00E9452
:10364000E0156FED72E08AE498E00E94E01569EE03
:1036500072E08AE498E00E94E0156EEF72E08AE47E
:1036600098E00E94E01562E173E08AE498E00E942D
:10367000E01564E373E08AE498E00E94E01563E5F6
:1036800073E08AE498E00E94E01567E872E08AE45B
:1036900098E00E94E0156BE872E08AE498E00E94EE
:1036A000E015E0911401F091150123E0EE0FFF1FEA
:1036B0002A95E1F7ED51F74F80819181909333077F
:1036C0008093320782819381A481B58180936407BE
:1036D00090936507A0936607B093670786819781EB
:1036E000909327078093260762E773E08AE498E0C7
:1036F0000E94F41562E677E080E090E00E94A60662
:10370000DC018D919C910E94361065E070E080E0B4
:1037100090E00E94340560E873E08AE498E00E943B
:10372000F41560E677E082E090E00E94A606FC01D6
:10373000808191810E94361065E070E080E090E029
:103740000E94340560E973E08AE498E00E94F41571
:10375000E0916007F091610733E0EE0FFF1F3A95AB
:10376000E1F7ED51F74F808191810E94361065E0BD
:1037700070E080E090E00E9434056FE973E08AE435
:1037800098E00E94F415E0916007F091610743E032
:10379000EE0FFF1F4A95E1F7ED51F74F62817381FC
:1037A000848195810E946F1065E070E080E090E078
:1037B0000E9434056FEA73E08AE498E00E94F415F1
:1037C000E0916007F091610753E0EE0FFF1F5A95FB
:1037D000E1F7ED51F74F868197810E94361065E041
:1037E00070E080E090E00E94340562EC73E08AE4CF
:1037F00098E00E94F4156CE577E086E090E00E9486
:103800008006DC016D917D918D919C910E946F10DD
:1038100065E070E080E090E00E94340563ED73E0C5
:103820008AE498E00E94F41568E577E08AE090E089
:103830000E948006FC0160817181828193810E94D7
:103840006F1065E070E080E090E00E94340564EE67
:1038500073E08AE498E00E94F41564E577E08EE076
:1038600090E00E948006DC016D917D918D919C918C
:103870000E946F1065E070E080E090E00E943405E7
:1038800065EF73E08AE498E00E94F41560E577E064
:1038900082E190E00E948006FC016081718182815A
:1038A00093810E946F1065E070E080E090E00E94DC
:1038B000340566E074E08AE498E00E94F4156EE452
:1038C00077E086E190E00E94A606DC018D919C9154
:1038D0000E94361065E070E080E090E00E943405C0
:1038E0006FE074E08AE498E00E94F4156CE477E0FD
:1038F00088E190E00E94A606FC01808191810E94EF
:10390000361065E070E080E090E00E94340568E1E8
:1039100074E08AE498E00E94F4156AE477E08AE1B2
:1039200090E00E94A606DC018D919C910E943610C9
:1039300065E070E080E090E00E94340561E274E0B0
:103940008AE498E00E94F41568E477E08CE190E066
:103950000E94A606FC01808191810E94361065E0DC
:1039600070E080E090E00E9434050E946E05672BB5
:10397000682B692B41F40E946E0562307105810548
:10398000910508F415C10E946E0560939607709327
:103990009707809398079093990700919207109149
:1039A000930720919407309195076017710782075C
:1039B000930740F460939207709393078093940762
:1039C0009093950700919207109193072091940787
:1039D000309195076B017C01C01AD10AE20AF30A03
:1039E000970186010A3F11052105310508F4E0C061
:1039F0006093920770939307809394079093950731
:103A000084EF91E0A0E0B0E08093A8089093A9082B
:103A1000A093AA08B093AB081092AC081092AD081E
:103A20001092AE081092AF088091A0089091A10862
:103A3000A091A208B091A3088093A4089093A50830
:103A4000A093A608B093A7080E946E056093A008F3
:103A50007093A1088093A2089093A3080E946E051A
:103A600060939C0870939D0880939E0890939F0894
:103A70000E946E056B017C016AE274E08091DC08B3
:103A80009091DD080E94F4152AE041E050E060E0EA
:103A900070E08091DC089091DD080E94971561E349
:103AA00074E08091DC089091DD080E94F4152AE012
:103AB000B701A6018091DC089091DD080E9497155E
:103AC00063E374E08091DC089091DD080E94F415B6
:103AD0008091A0089091A108A091A208B091A3089C
:103AE000B701A601481B590B6A0B7B0B2AE080919A
:103AF000DC089091DD080E94971563E374E08091E3
:103B0000DC089091DD080E94F4154091A0085091C6
:103B1000A1086091A2087091A3088091A4089091D7
:103B2000A508A091A608B091A708481B590B6A0BDD
:103B30007B0B2AE08091DC089091DD080E949715AC
:103B400065E374E08091DC089091DD080E94F41533
:103B50000E946E05AB01BC012AE08091DC089091C7
:103B6000DD080E94971567E374E08091DC0890916E
:103B7000DD080E94E0150E946E054B015C016B019F
:103B80007C0195E0C90ED11CE11CF11C0E946E0560
:103B9000681579058A059B0508F015C50E946E0514
:103BA0006093A0087093A1088093A2089093A30843
:103BB00082E10E940905988B8F8790934507809337
:103BC000440783E10E9409051C01909343078093F9
:103BD000420784E10E9409059A8B898B90934107E3
:103BE000809340078CE10E9409059C8B8B8B9093FE
:103BF0003F0780933E0780913C0790913D070F85DA
:103C00001889081B190B1016110644F4B801012E6F
:103C1000000C880B990B0E944C2403C060E070E0FC
:103C2000CB019B01AC010E94AB244B015C01809154
:103C30003A0790913B07E988FA88E81AF90A1E14B6
:103C40001F0444F4B7010F2C000C880B990B0E9441
:103C50004C2403C060E070E0CB019B01AC010E94EA
:103C6000AB249B01AC01C501B4010E94A2250E94B6
:103C700011276B877C878D879E8760938E07709353
:103C80008F078093900790939107101611063CF4CC
:103C9000B801110F880B990B0E944C2403C060E0FF
:103CA00070E0CB019B01AC010E94AB244B015C0195
:103CB0008091380790913907CB88DC88C81AD90AD7
:103CC000DE8ACD8A1C141D043CF4B601DD0C880B81
:103CD000990B0E944C2403C060E070E0CB019B0173
:103CE000AC010E94AB249B01AC01C501B4010E9450
:103CF000A2250E9411272B013C0160938A07709333
:103D00008B0780938C0790938D0780913607909155
:103D100037078101081B190B1016110644F4B8016E
:103D2000012E000C880B990B0E944C2403C060E00C
:103D300070E0CB019B01AC010E94AB244B015C0104
:103D40001E141F043CF4B701FF0C880B990B0E9452
:103D50004C2403C060E070E0CB019B01AC010E94E9
:103D6000AB249B01AC01C501B4010E94A2250E94B5
:103D700011276B017C0160938607709387078093FE
:103D8000880790938907101611063CF4B801110FAB
:103D9000880B990B0E944C2403C060E070E0CB01BB
:103DA0009B01AC010E94AB244B015C012D893E8933
:103DB000121613063CF4B901330F880B990B0E94BD
:103DC0004C2403C060E070E0CB019B01AC010E9479
:103DD000AB249B01AC01C501B4010E94A2250E9445
:103DE00011274B015C0160938207709383078093D6
:103DF00084079093850720917E0730917F0740913B
:103E00008007509181076B857C858D859E850E94FA
:103E1000B62618165CF120917A0730917B07409105
:103E20007C0750917D07C301B2010E94B626181687
:103E3000ECF0209176073091770740917807509108
:103E40007907C501B4010E94B62618167CF02091AE
:103E50007207309173074091740750917507C7013D
:103E6000B6010E94B62618160CF049C100917007E1
:103E7000109171070F5F1F4F109371070093700728
:103E800064E170E080E090E00E94340503301105A9
:103E90000CF435C18091340790913507A30192014C
:103EA000892B09F08EC06B857C858D859E850E944F
:103EB000B62687FD19C0A70196016B857C858D8587
:103EC0009E850E94B62687FD0FC0A50194016B85D3
:103ED0007C858D859E850E94B62687FD05C08989D3
:103EE0009A890E94600B1EC02B853C854D855E859E
:103EF000C301B2010E94B6261816FCF4A501940174
:103F0000C301B2010E94B6261816BCF4A70196019F
:103F1000C301B2010E94B62618167CF48B899C89D5
:103F20000E94CC0A682F8F8598896F8B0E94380A6F
:103F300040E06F890E94D50FD4C02B853C854D850C
:103F40005E85C501B4010E94B62687FD15C0A30198
:103F50009201C501B4010E94B62687FD0DC0A701DC
:103F60009601C501B4010E94B62687FD05C08B8964
:103F70009C890E94CC0A1FC02B853C854D855E859F
:103F8000C701B6010E94B62618160CF0B8C0A301EE
:103F90009201C701B6010E94B62687FDB0C0A501F7
:103FA0009401C701B6010E94B62687FDA8C0898981
:103FB0009A890E94600B682FC1016F8B0E9499093A
:103FC000B7CF6B857C858D859E850E94B62687FD43
:103FD00019C0A70196016B857C858D859E850E9401
:103FE000B62687FD0FC0A50194016B857C858D8564
:103FF0009E850E94B62687FD05C089899A890E9400
:10400000600B1EC02B853C854D855E85C301B201CA
:104010000E94B6261816D4F4A5019401C301B2017A
:104020000E94B626181694F4A7019601C301B201A6
:104030000E94B626181654F48B899C890E94CC0ADB
:104040008C018F8598890E94380A41C02B853C8558
:104050004D855E85C501B4010E94B62687FD15C059
:10406000A3019201C501B4010E94B62687FD0DC0CF
:10407000A7019601C501B4010E94B62687FD05C0BF
:104080008B899C890E94CC0A1EC02B853C854D855E
:104090005E85C701B6010E94B626181684F5A301F5
:1040A0009201C701B6010E94B62687FD28C0A5016E
:1040B0009401C701B6010E94B62687FD20C08989F8
:1040C0009A890E94600B8C01C1010E949909BC0170
:1040D00020E030E0A80180913007909131070E94E4
:1040E000D6086091320770913307072E000C880BB9
:1040F000990B0E943405109271071092700788E0A6
:104100000E94A404892B09F064C06AEF70E080E08B
:1041100090E00E94340587E00E94A404892B19F4E2
:104120000E942E0D56C080911401909115010196A8
:1041300090931501809314018930910579F443E03F
:1041400050E062E370E086E090E00E94A70C88E017
:1041500090E090931501809314013BC041E050E042
:1041600064E670E00E94A70CE0911401F091150143
:1041700093E0EE0FFF1F9A95E1F7ED51F74F808125
:104180009181909333078093320782819381A48138
:10419000B5818093640790936507A0936607B093F9
:1041A000670786819781909327078093260764E1AC
:1041B00071E082E090E00E944C0669E170E080E0EE
:1041C00090E00E9434056EE374E08AE498E00E9477
:1041D000E01587E00E94A404892B09F06AC06AEF09
:1041E00070E080E090E00E94340588E00E94A40422
:1041F000892B19F40E942E0D5CC0809114019091BE
:104200001501019790931501809314018F3FAFEF33
:104210009A0769F443E050E062E370E086E090E0E2
:104220000E94A70C109215011092140142C041E0A7
:1042300050E0009729F46EE571E081E090E002C063
:1042400064E670E00E94A70CE0911401F091150162
:1042500083E0EE0FFF1F8A95E1F7ED51F74F808164
:104260009181909333078093320782819381A48157
:10427000B5818093640790936507A0936607B09318
:10428000670786819781909327078093260764E1CB
:1042900071E082E090E00E944C0669E170E080E00D
:1042A00090E00E94340560E474E08AE498E00E94A3
:1042B000E01587E10E940905BC01990F880B990B55
:1042C0000E944C2420E030EC4FE754E40E940E267C
:1042D00020E030E040EA50E40E94AB2460936C0799
:1042E00070936D0780936E0790936F07C0902C07B3
:1042F000D0902D07E0902E07F0902F07A701960190
:104300000E94452487FFB2C0A701960160916C0707
:1043100070916D0780916E0790916F070E94452400
:1043200087FF2DC087E10E940905BC01990F880B0A
:10433000990B0E944C2420E030EC4FE754E40E949B
:104340000E2620E030E040EA50E40E94AB24609367
:104350006C0770936D0780936E0790936F07809141
:104360006A0790916B07019690936B0780936A0799
:1043700065E070E080E090E00E943405C5CF409198
:104380006A0750916B0760E070E02AE08AE498E0E9
:104390000E94971560EB71E08AE498E00E94821514
:1043A000209134073091350780916A0790916B070F
:1043B000232B11F58639910528F48091E20880FFBE
:1043C0000CC108C19C01275931092735324028F416
:1043D0008091E20880FF05C1FDC08F3E924008F445
:1043E00041C043E050E06EE571E084E090E00E945F
:1043F000A70C0E94BA0636C086399105A8F481E060
:1044000090E0909331078093300720E030E040E067
:1044100050E060E070E00E94D6080E94A60810926A
:10442000310710923007DFC09C0127593109273529
:104430003240A0F48091300790913107009739F411
:1044400081E090E090933107809330070BC0019793
:1044500049F4109231071092300704C08F3E924009
:1044600008F0BFCF10926B0710926A07C090280720
:10447000D0902907E0902A07F0902B07A70196011A
:1044800060916C0770916D0780916E0790916F0736
:104490000E94B62618160CF093C0A70196016091F1
:1044A0006C0770916D0780916E0790916F070E9465
:1044B000B62618166CF587E10E940905BC01990F14
:1044C000880B990B0E944C2420E030EC4FE754E419
:1044D0000E940E2620E030E040EA50E40E94AB2427
:1044E00060936C0770936D0780936E0790936F07CE
:1044F000809168079091690701969093690780936E
:10450000680765E070E080E090E00E943405C5CF68
:10451000409168075091690760E070E02AE08AE402
:1045200098E00E94971560EB71E08AE498E00E94A1
:10453000821520913407309135078091680790915A
:104540006907232B09F58639910520F482E00E9442
:10455000281007C0875991098735924090F40E942E
:10456000FF0B65E070E080E090E00E94340524C01D
:104570009C01275931092735324088F38F3E9240FC
:10458000D8F00E943C0FEDCF8639910588F782E084
:1045900090E0909331078093300720E030E040E0D6
:1045A00050E060E070E00E94D6081092310710924F
:1045B00030070E94A608D5CF1092690710926807AD
:1045C0000E944002D2C9C616D706E806F90608F0CE
:1045D000DDCAE4CA0E941A1045CF81E00E9428106B
:1045E00002C00E940C1065E070E080E090E00E9444
:1045F000340538CF1092B0071092AF0788EE93E0E1
:10460000A0E0B0E08093B1079093B207A093B30706
:10461000B093B40721E831E03093AE072093AD07A3
:104620002DEC30E03093BA072093B9072CEC30E042
:104630003093BC072093BB0728EC30E03093BE07D3
:104640002093BD0729EC30E03093C0072093BF07CB
:104650002AEC30E03093C2072093C1072EEC30E003
:104660003093C4072093C3071092C6071092C70760
:104670001092C8071092C90710924D0810924C086A
:1046800080934E0890934F08A0935008B093510820
:1046900083E991E090934B0880934A088FEF9FEF56
:1046A00090935708809356081092A0081092A10882
:1046B0001092A2081092A3081092A4081092A508C4
:1046C0001092A6081092A7081092A8081092A908A4
:1046D0001092AA081092AB081092AC081092AD0884
:1046E0001092AE081092AF081092E20880914A0929
:1046F000811113C0109245091092440981E592E09E
:10470000909347098093460986E390E09093490986
:104710008093480981E080934A0980913C09811186
:1047200007C08BE299E00E94C40581E080933C09B8
:10473000E0913609F0913709309739F484E499E033
:1047400090933709809336090AC080819181009740
:1047500011F0FC01FACF84E499E0918380832091E9
:104760004809309149098091380990913909820F9F
:10477000931F90933909809338098AE090E09093D1
:10478000700180936F018FE090E0909368018093B7
:10479000670184E190E09093600180935F0189E17B
:1047A00090E090935801809357018EE190E09093B0
:1047B000500180934F0183E290E0909348018093F1
:1047C000470188E290E09093400180933F018DE2A1
:1047D00090E0909338018093370182E390E09093CA
:1047E000300180932F0188E0E9E6F1E0A3EEB8E024
:1047F00001900D928A95E1F788E0E1E6F1E0ABEEF9
:10480000B8E001900D928A95E1F788E0E9E5F1E0E2
:10481000A3EFB8E001900D928A95E1F788E0E1E519
:10482000F1E0ABEFB8E001900D928A95E1F788E0F6
:10483000E9E4F1E0A3E0B9E001900D928A95E1F797
:1048400088E0E1E4F1E0ABE0B9E001900D928A95F7
:10485000E1F788E0E9E3F1E0A3E1B9E001900D922E
:104860008A95E1F788E0E1E3F1E0ABE1B9E001909E
:104870000D928A95E1F788E0E9E2F1E0A3E2B9E080
:1048800001900D928A95E1F708950E94872408F41B
:1048900081E00895E89409C097FB3EF490958095D7
:1048A000709561957F4F8F4F9F4F9923A9F0F92FF6
:1048B00096E9BB279395F695879577956795B79574
:1048C000F111F8CFFAF4BB0F11F460FF1BC06F5F5A
:1048D0007F4F8F4F9F4F16C0882311F096E911C06C
:1048E000772321F09EE8872F762F05C0662371F08D
:1048F00096E8862F70E060E02AF09A95660F771FA1
:10490000881FDAF7880F9695879597F90895990F7C
:104910000008550FAA0BE0E8FEEF16161706E80789
:10492000F907C0F012161306E407F50798F0621BAA
:10493000730B840B950B39F40A2661F0232B242B7F
:10494000252B21F408950A2609F4A140A6958FEF9E
:10495000811D811D08950E94BE240C942F250E9464
:10496000212538F00E94282520F0952311F00C9481
:1049700018250C941E2511240C9463250E944025B3
:1049800070F3959FC1F3950F50E0551F629FF001A2
:10499000729FBB27F00DB11D639FAA27F00DB11DBB
:1049A000AA1F649F6627B00DA11D661F829F222744
:1049B000B00DA11D621F739FB00DA11D621F839FCB
:1049C000A00D611D221F749F3327A00D611D231FA1
:1049D000849F600D211D822F762F6A2F11249F57EF
:1049E00050409AF0F1F088234AF0EE0FFF1FBB1FF2
:1049F000661F771F881F91505040A9F79E3F5105B1
:104A000080F00C9418250C9463255F3FE4F3983EE6
:104A1000D4F3869577956795B795F795E7959F5F5A
:104A2000C1F7FE2B880F911D9695879597F90895EC
:104A300097F99F6780E870E060E008959FEF80EC51
:104A4000089500240A9416161706180609060895F4
:104A500000240A9412161306140605060895092E5A
:104A60000394000C11F4882352F0BB0F40F4BF2BC9
:104A700011F460FF04C06F5F7F4F8F4F9F4F089509
:104A800057FD9058440F551F59F05F3F71F04795FF
:104A9000880F97FB991F61F09F3F79F087950895E4
:104AA000121613061406551FF2CF4695F1DF08C003
:104AB000161617061806991FF1CF86957105610520
:104AC00008940895E894BB2766277727CB0197F9C8
:104AD0000895F999FECF92BD81BDF89A992780B5C6
:104AE0000895262FF999FECF1FBA92BD81BD20BD32
:104AF0000FB6F894FA9AF99A0FBE01960895A1E2BA
:104B00001A2EAA1BBB1BFD010DC0AA1FBB1FEE1F47
:104B1000FF1FA217B307E407F50720F0A21BB30B92
:104B2000E40BF50B661F771F881F991F1A9469F70E
:104B300060957095809590959B01AC01BD01CF016A
:104B400008955058BB27AA270E94B9250C942F25F9
:104B50000E94212538F00E94282520F039F49F3F3B
:104B600019F426F40C941E250EF4E095E7FB0C9442
:104B70001825E92F0E94402558F3BA1762077307DA
:104B80008407950720F079F4A6F50C9462250EF4BD
:104B9000E0950B2EBA2FA02D0B01B90190010C014D
:104BA000CA01A0011124FF27591B99F0593F50F465
:104BB000503E68F11A16F040A22F232F342F4427BD
:104BC000585FF3CF469537952795A795F0405395B5
:104BD000C9F77EF41F16BA0B620B730B840BBAF085
:104BE0009150A1F0FF0FBB1F661F771F881FC2F7F0
:104BF0000EC0BA0F621F731F841F48F48795779504
:104C00006795B795F7959E3F08F0B0CF9395880FBD
:104C100008F09927EE0F9795879508950E94222610
:104C20000C942F250E94282558F00E94212540F041
:104C300029F45F3F29F00C94182551110C94632539
:104C40000C941E250E94402568F39923B1F3552347
:104C500091F3951B550BBB27AA276217730784078F
:104C600038F09F5F5F4F220F331F441FAA1FA9F325
:104C700035D00E2E3AF0E0E832D091505040E69513
:104C8000001CCAF72BD0FE2F29D0660F771F881F74
:104C9000BB1F261737074807AB07B0E809F0BB0B67
:104CA000802DBF01FF2793585F4F3AF09E3F51057B
:104CB00078F00C9418250C9463255F3FE4F3983E3C
:104CC000D4F3869577956795B795F7959F5FC9F764
:104CD000880F911D9695879597F90895E1E0660FE5
:104CE000771F881FBB1F621773078407BA0720F05E
:104CF000621B730B840BBA0BEE1F88F7E0950895C7
:104D00000E9487266894B1110C94632508950E942F
:104D1000482588F09F5798F0B92F9927B751B0F0E0
:104D2000E1F0660F771F881F991F1AF0BA95C9F72F
:104D300014C0B13091F00E946225B1E008950C9446
:104D40006225672F782F8827B85F39F0B93FCCF3F9
:104D5000869577956795B395D9F73EF490958095AC
:104D6000709561957F4F8F4F9F4F08950E948724C4
:104D700008F48FEF0895FA01EE0FFF1F309621051A
:104D80003105A1F16115710561F48038BFE39B071E
:104D900049F168949038810561F08038BFEF9B0736
:104DA00041F099234AF5FF3FE1053105210519F14D
:104DB000E8940894E795D901AA2329F4AB2FBE2FD4
:104DC000F85FD0F310C0FF5F70F4A695E0F7F739F5
:104DD00050F019F0FF3A38F49F779F930DD00F9061
:104DE00007FC9058089546F00C941E2560E070E092
:104DF00080E89FE308954FE79F775F934F933F933A
:104E00002F930E9416282F913F914F915F910E94FE
:104E1000AB240C945E2719F416F40C941E250C9404
:104E200090270E944825B8F39923C9F3B6F39F57FA
:104E3000550B87FF0E949E270024A0E640EA9001C0
:104E400080585695979528F4805C660F771F881FC9
:104E500020F026173707480730F4621B730B840BCA
:104E6000202931294A2BA69517940794202531250E
:104E70004A2758F7660F771F881F20F02617370735
:104E8000480730F4620B730B840B200D311D411D5C
:104E9000A09581F7B901842F9158880F9695879531
:104EA00008950E948724880B990B089529F416F021
:104EB0000C9418250C9462250C941E250E944825FC
:104EC000A8F39638A0F707F80F92E8942BE33AEA94
:104ED00048EB5FE70E94C1240F920F920F924DB7EB
:104EE0005EB70F920E945E28EAECF0E00E94A527D0
:104EF0004F915F91EF91FF91E595EE1FFF1F49F0F4
:104F0000FE57E0684427EE0F441FFA95E1F74195FC
:104F1000550B0E94D8270F9007FE0C94CC270895BC
:104F20009F3F31F0915020F4879577956795B7951D
:104F3000880F911D9695879597F908959150504047
:104F4000660F771F881FD2F70895DF93CF931F93C3
:104F50000F93FF92EF92DF927B018C01689406C061
:104F6000DA2EEF010E94BE24FE01E894A59125915E
:104F7000359145915591A6F3EF010E94B925FE01A7
:104F80009701A801DA9469F7DF90EF90FF900F91F5
:104F90001F91CF91DF9108959B01AC0160E070E01B
:104FA00080E89FE30C940E260C9418250C9490270F
:104FB0000E944825D8F39923C9F3940F511DA3F3F8
:104FC0009150504094F059F0882332F0660F771FCB
:104FD000881F91505040C1F79E3F51052CF7880F14
:104FE000911D9695879597F908955F3FACF0983E8F
:104FF0009CF0BB27869577956795B79508F4B160C7
:105000009395C1F7BB0F58F711F460FFE8CF6F5FBE
:105010007F4F8F4F9F4FE3CF0C94632516F00C9476
:1050200090270C941E2568940C9418250E944825FE
:10503000A8F39923C1F3AEF3DF93CF931F930F939C
:10504000FF92C92FDD2788232AF02197660F771F4B
:10505000881FDAF720E030E040E85FEB9FE3883913
:1050600020F0803E38F021968F770E94A225E2EF53
:10507000F0E004C00E94A225EFE1F1E00E94A52724
:105080008B01BE01EC01FB2E6F5771097595771FDF
:10509000880B990B0E944C2428E132E741E35FE33F
:1050A0000E94BE24AF2D9801AE01FF900F911F9179
:1050B000CF91DF910E94B9250C942F25FA01DC01D4
:1050C000AA0FBB1F9B01AC01BF5728F4222733272F
:1050D0004427507820C0B75190F4AB2F0024469558
:1050E00037952795011CA395D2F3002071F0220F6C
:1050F000331F441FB395DAF30ED00C94A125613011
:105100007105A0E88A07B94630F49B01AC01662717
:10511000772788279078309621F020833183428347
:1051200053830895EE0FFF1F0590F491E02D09942D
:0E51300081E090E0F8940C949D28F894FFCF55
:10513E000000F0410000803F0000803F0000803FF3
:10514E000000803F040000C18081000000FFFFFFCF
:10515E00FF00E10000000000000500CDCC8CBF0078
:10516E00000500CDCC8CBF00000500CDCC8CBF005F
:10517E00000500CDCC8CBF00000500CDCC8CBF004F
:10518E00000500CDCC8CBF00000500CDCC8CBF003F
:10519E00000500CDCC8CBF00000500CDCC8CBF002F
:1051AE0000000000001B030404C4034203000000BF
:1051BE0000D7016A146F011E02A0017E0192010048
:1051CE000000004A0265037B0360026B0280039EAF
:1051DE0003564D4450565F317C315F564D44505608
:1051EE000D0A00636F6D6D5F6D6F6465203D20303D
:1051FE0000426C7565746F6F74682044656570202D
:10520E00536C656570204D6F6465204163746976DB
:10521E006174656400636F6D6D5F6D6F6465203DD5
:10522E0020310053542C3235350053412C3200536B
:10523E00582C3000534E2C4C697053796E63425487
:10524E005F4175746F6C6F61643300534D2C360083
:10525E0053482C3032323000537E2C360053512CB2
:10526E003000533F2C3100522C3100426C75657466
:10527E006F6F746820636F6E6669677572617469AB
:10528E006F6E206861732070726576696F75736CCE
:10529E0079206265656E20636F6D706C65746564F0
:1052AE002E00436F6E66696775726174696F6E204A
:1052BE0074696D653A2000202D2D2D2000546869EB
:1052CE007320697320746865203039204D61792010
:1052DE002D2046535220426C7565746F6F74682092
:1052EE004575636C696465616E2057495000456E63
:1052FE0068616E6365642066756E6374696F6E7344
:10530E003A0054617020616E6420647261670053CC
:10531E0063726F6C6C696E67004A6F797374696340
:10532E006B2063616C6962726174696F6E004D69A6
:10533E0064646C65206D6F75736520627574746F2F
:10534E006E0048616E64732D6672656520686F6DC0
:10535E006520706F736974696F6E696E6720726510
:10536E0073657400437572736F7220736563757223
:10537E006974792073776970652066756E637469D8
:10538E006F6E00426C7565746F6F74682063617028
:10539E0061626C6520636F6E6E65637469766974A5
:1053AE007900636F6E6669675F646F6E653A2000A1
:1053BE0073706565645F636F756E7465723A200015
:1053CE00637572736F725F64656C61793A20006306
:1053DE007572736F725F666163746F723A200063E9
:1053EE007572736F725F6D61785F73706565643A25
:1053FE00200079685F636F6D7020666163746F72F1
:10540E003A2000796C5F636F6D7020666163746F14
:10541E00723A200078685F636F6D70206661637406
:10542E006F723A2000786C5F636F6D7020666163F7
:10543E00746F723A200078685F6D61783A20007858
:10544E006C5F6D61783A200079685F6D61783A2003
:10545E0000796C5F6D61783A2000564D4450455F7F
:10546E00003A323A007C005F564D445045002B0006
:10547E002D006D61785F66696E616C3A2000486F31
:10548E006D6520706F736974696F6E2063616C69EE
:10549E0062726174696F6E20636F6D706C65746596
:1054AE002E0024242400426C7565746F6F7468207E
:1054BE00436F6D6D616E64204D6F64652041637442
:1054CE0069766174656400746F6F20736C6F77001A
:1054DE00676F7463686100507265706172652066F3
:1054EE006F72206A6F79737469636B2063616C6984
:1054FE0062726174696F6E21004D6F7665206D6FFB
:10550E00757468706965636520746F2074686520B2
:10551E0066757274686573742076657274696361FA
:10552E006C20757020706F736974696F6E20616E78
:10553E006420686F6C6420697420746865726520DD
:10554E00756E74696C20746865204C4544207475C2
:10555E00726E7320534F4C4944205245442C207494
:10556E0068656E2072656C65617365207468652070
:10557E006D6F75746870696563652E004D6F766525
:10558E00206D6F757468706965636520746F207423
:10559E00686520667572746865737420686F7269C9
:1055AE007A6F6E74616C20726967687420706F73A5
:1055BE006974696F6E20616E6420686F6C64206917
:1055CE007420746865726520756E74696C207468D9
:1055DE0065204C4544207475726E7320534F4C49B0
:1055EE0044205245442C207468656E2072656C65AB
:1055FE0061736520746865206D6F75746870696578
:10560E0063652E004D6F7665206D6F7574687069D9
:10561E0065636520746F20746865206675727468A2
:10562E0065737420766572746963616C20646F773C
:10563E006E20706F736974696F6E20616E6420687E
:10564E006F6C6420697420746865726520756E7461
:10565E00696C20746865204C4544207475726E73B5
:10566E0020534F4C4944205245442C207468656E9B
:10567E002072656C6561736520746865206D6F7549
:10568E00746870696563652E004D6F7665206D6F69
:10569E00757468706965636520746F207468652021
:1056AE00667572746865737420686F72697A6F6E4E
:1056BE0074616C206C65667420706F736974696FA9
:1056CE006E20616E6420686F6C642069742074684B
:1056DE0065726520756E74696C20746865204C4522
:1056EE0044207475726E7320534F4C4944205245BA
:1056FE00442C207468656E2072656C65617365203C
:10570E00746865206D6F75746870696563652E00C9
:10571E004A6F79737469636B207370656564206377
:10572E00616C6962726174696F6E2070726F63650D
:10573E006475726520697320636F6D706C65746536
:0E574E002E006E616E00696E66006F7666005A
:00000001FF
